:100000000C9434000C9451000C9451000C94510049
:100010000C9451000C9451000C9451000C9451001C
:100020000C9451000C9451000C9451000C94C31A80
:100030000C9451000C9451000C9451000C945100FC
:100040000C9451000C9451000C94551C0C94991C68
:100050000C9451000C9451000C9451000C945100DC
:100060000C9451000C94510011241FBECFEFD8E026
:10007000DEBFCDBF11E0A0E0B1E0E4E5FBE302C0EC
:1000800005900D92A232B107D9F728E0A2E2B1E0C3
:1000900001C01D92A637B207E1F70E9453000C94ED
:1000A000A81D0C940000AF92BF92CF92DF92EF9206
:1000B000FF920F93CF93DF9300D000D0CDB7DEB780
:1000C000A12CB12CC12CD12CCE0101967C0100E0D9
:1000D00020E030E045E550E062E071E08EE990E03C
:1000E0000E94C000CE010396A12CB12CC12CD12CB2
:1000F0007C0101E020E030E045E550E069E071E09E
:1001000086EA90E00E94C0000E94FF0480E090E038
:100110000F900F900F900F90DF91CF910F91FF9064
:10012000EF90DF90CF90BF90AF900895CF93DF9383
:10013000CDB7DEB70000DF91CF910895CF93DF9365
:1001400000D0CDB7DEB79A838983FFCFCF93DF93FB
:1001500000D0CDB7DEB79A83898384E290E020E2B5
:10016000FC01208385E290E020E2FC012083FACFAD
:10017000CF93DF9300D0CDB7DEB79A838983FFCFCB
:10018000AF92BF92CF92DF92EF92FF920F931F93A5
:10019000CF93DF93CDB7DEB764970FB6F894DEBF89
:1001A0000FBECDBF9F838E83798768875B874A8721
:1001B0003D872C870E87F88AEF86DA8AC98ABC8A3F
:1001C000AB8A29893A898A859B85B9010E94D80919
:1001D0009B838A838A819B81892B09F49FC08A81B2
:1001E0009B81FC012789308D8A859B850197820F31
:1001F000931F9D838C834A855B852B893C89688509
:1002000079858A819B818A014E850E94A9084C8547
:100210005D852E813F818C819D81B9010E94D0171F
:100220009C018A819B81FC01318320838F85988981
:10023000892B39F08F8598892A813B81FC01318394
:1002400020830FB6F8940F9280917A018F5F80938C
:100250007A018091220190912301892B69F48A818E
:100260009B81909323018093220180917A018130B8
:10027000B1F40E940B0913C080917F01882379F4A7
:100280008091220190912301FC0186899E85981717
:1002900030F08A819B8190932301809322018A818F
:1002A0009B81FC01968980917D01891730F48A81B8
:1002B0009B81FC01868980937D01809184018F5F01
:1002C000809384018A819B81FC01968980917E01C3
:1002D000891730F48A819B81FC01868980937E0195
:1002E0008A819B81AC014E5F5F4F8A819B81FC01BB
:1002F0008689282F30E0C901880F991F880F991F20
:10030000880F991F820F931F8C5D9E4FBA010E9428
:10031000820E81E089830F900FBE02C08FEF898328
:100320008981813079F480917F01882359F080910F
:10033000220190912301FC0186899E85891710F482
:100340000E94B619898164960FB6F894DEBF0FBE7D
:10035000CDBFDF91CF911F910F91FF90EF90DF9074
:10036000CF90BF90AF900895CF93DF9300D000D08F
:10037000CDB7DEB79C838B830FB6F8940F92809134
:100380002201909123012B813C812817390711F418
:100390001C821B828B819C81892B29F480912201F4
:1003A0009091230102C08B819C819A8389838981EA
:1003B0009A8102960E94530F89819A81FC01848957
:1003C0009589892B29F089819A810C960E94530F77
:1003D00089819A810296BC0187E691E00E94820E93
:1003E000809170018F5F80937001809184018F5F95
:1003F000809384010F900FBE80917F01882331F09C
:100400008B819C81892B11F40E94B61900000F90FA
:100410000F900F900F90DF91CF910895CF93DF93BE
:10042000CDB7DEB728970FB6F894DEBF0FBECDBFAD
:100430009E838D8378876F8319820E9443058D8107
:100440009E81FC01808191812F813885820F931FCD
:100450009B838A838D819E81FC01208131818091E3
:100460007B0190917C0182179307B0F48D819E816E
:10047000FC01808191812A813B812817390708F589
:1004800080917B0190917C012A813B8182179307A7
:10049000C0F481E0898315C08D819E81FC0180813B
:1004A00091812A813B812817390748F080917B018F
:1004B00090917C012A813B818217930710F481E09F
:1004C00089838D819E812A813B81FC013183208338
:1004D0008981882359F0809122019091230102960D
:1004E0000E94530F8A819B810E948D090E945005B2
:1004F0008C838C81882311F40E94B6190000289601
:100500000FB6F894DEBF0FBECDBFDF91CF91089537
:10051000CF93DF9300D000D00F92CDB7DEB79D838D
:100520008C8319828C819D81892BD1F00E94430597
:1005300080917B0190917C012C813D81820F931FE2
:100540009B838A83809122019091230102960E94CD
:10055000530F8A819B810E948D090E9450058983D7
:100560008981882311F40E94B61900000F900F9022
:100570000F900F900F90DF91CF910895CF93DF935D
:1005800000D000D00F92CDB7DEB79D838C830FB61D
:10059000F8940F928C819D81892B29F480912201FE
:1005A0009091230102C08C819D819A8389838981E6
:1005B0009A81FC0186898B830F900FBE8B810F90EF
:1005C0000F900F900F900F90DF91CF910895CF93E0
:1005D000DF9300D000D000D00F92CDB7DEB79E835E
:1005E0008D836F8319828F81843010F083E08F8335
:1005F0000FB6F8940F9280912201909123012D81E2
:100600003E812817390711F41E821D828D819E813B
:10061000892B29F4809122019091230102C08D81C0
:100620009E819B838A838A819B81FC0181A18C832B
:100630009C818F81981709F478C09F818C818917DC
:1006400038F48D819E81892B49F081E0898306C031
:100650008D819E81892B11F481E089838A819B8120
:10066000FC0121A18A819B81FC018689281729F43C
:100670008A819B812F81FC01268B8A819B812F811E
:10068000FC0121A38F81882F90E024E030E0281B1B
:10069000390B8A819B81FC01358724878A819B8164
:1006A000FC01428553858C81282F30E0C901880FD9
:1006B000991F880F991F880F991F820F931F8C5DB8
:1006C0009E4F4817590761F58A819B8102960E94C7
:1006D000530F8A819B81FC01968980917E01891745
:1006E00030F48A819B81FC01868980937E018A8116
:1006F0009B81AC014E5F5F4F8A819B81FC018689A3
:10070000282F30E0C901880F991F880F991F880F83
:10071000991F820F931F8C5D9E4FBA010E94820E1B
:100720008981813011F40E94B6190F900FBE00002C
:1007300027960FB6F894DEBF0FBECDBFDF91CF91E5
:100740000895CF93DF9300D000D0CDB7DEB79C8360
:100750008B830FB6F8940F92809122019091230120
:100760002B813C812817390711F41C821B828B8155
:100770009C81892B29F4809122019091230102C050
:100780008B819C819A83898389819A8102960E94B8
:10079000530F89819A81FC0184899589892B29F0DD
:1007A00089819A810C960E94530F89819A810296C1
:1007B000BC0181E791E00E94820E0F900FBE8B81F9
:1007C0009C81892BA1F480917F01882319F00E94DC
:1007D000B6190DC09091710180917A01981729F492
:1007E000109223011092220102C00E94E70600002D
:1007F0000F900F900F900F90DF91CF910895CF93AE
:10080000DF9300D000D00F92CDB7DEB79D838C83ED
:1008100019828C819D819B838A838A819B81FC01C3
:10082000828593858157914089F48A819B81FC015F
:10083000848995898E55914049F08A819B81FC017C
:1008400084899589892B11F481E0898389810F90AE
:100850000F900F900F900F90DF91CF910895CF934D
:10086000DF9300D000D0CDB7DEB79C838B838B8124
:100870009C819A83898389819A81892B09F44FC04D
:10088000809122019091230129813A81281739070B
:1008900009F445C00FB6F8940F9289819A810E949D
:1008A000FF038130D1F589819A8102960E94530F0E
:1008B00089819A81FC01968980917E01891730F4A3
:1008C00089819A81FC01868980937E0189819A8140
:1008D000AC014E5F5F4F89819A81FC018689282F88
:1008E00030E0C901880F991F880F991F880F991F41
:1008F000820F931F8C5D9E4FBA010E94820E8981E8
:100900009A81FC0126898091220190912301FC01AA
:100910008689281710F00E94B6190F900FBE0000AC
:100920000F900F900F900F90DF91CF910895CF937C
:10093000DF9300D000D000D0CDB7DEB79E838D838B
:1009400019828D819E819B838A831C828A819B81EF
:100950000E94FF03813009F048C080918001882304
:10096000E1F58A819B81FC01268980912201909189
:100970002301FC01968981E0291708F480E089832E
:100980008A819B8102960E94530F8A819B81FC0180
:10099000968980917E01891730F48A819B81FC01C0
:1009A000868980937E018A819B81AC014E5F5F4F77
:1009B0008A819B81FC018689282F30E0C901880F3C
:1009C000991F880F991F880F991F820F931F8C5DA5
:1009D0009E4FBA010E94820E08C08A819B810C96AC
:1009E000BC018EE591E00E94820E898126960FB6A9
:1009F000F894DEBF0FBECDBFDF91CF910895AF92C7
:100A0000BF92CF92DF92EF92FF920F93CF93DF933B
:100A10000F92CDB7DEB7A12CB12CC12CD12CE12C7B
:100A2000F12C00E020E030E045E550E060E171E0CD
:100A300087E998E00E94C00089838981813051F460
:100A4000F89481E080937F0110927C0110927B01E9
:100A50000E94791900000F90DF91CF910F91FF90C4
:100A6000EF90DF90CF90BF90AF900895CF93DF933A
:100A7000CDB7DEB7F89410927F010E94AE19000046
:100A8000DF91CF910895CF93DF93CDB7DEB78091FB
:100A900080018F5F809380010000DF91CF910895E6
:100AA0000F931F93CF93DF9300D0CDB7DEB719829A
:100AB0000FB6F8940F92809180018150809380014D
:100AC00080918001882309F064C080917A01882395
:100AD00009F45FC01A823AC0809163019091640169
:100AE000FC0106811781C8010C960E94530FC801B2
:100AF00002960E94530FF801968980917E01891712
:100B000020F4F801868980937E01A8014E5F5F4F33
:100B1000F8018689282F30E0C901880F991F880FB6
:100B2000991F880F991F820F931F8C5D9E4FBA01EA
:100B30000E94820EF8012689809122019091230162
:100B4000FC018689281710F081E08A8380915E017C
:100B5000882311F680918101882371F007C00E94DB
:100B600008068091810181508093810180918101EB
:100B70008823A9F781E08A838A81813021F08091DE
:100B80008201813031F481E08983109282010E94D8
:100B9000B6190F900FBE89810F900F90DF91CF9102
:100BA0001F910F910895CF93DF9300D0CDB7DEB79B
:100BB0000FB6F8940F9280917B0190917C019A83FB
:100BC00089830F900FBE89819A810F900F90DF91DA
:100BD000CF910895CF93DF9300D00F92CDB7DEB7BA
:100BE000198280917B0190917C019B838A838A8109
:100BF0009B810F900F900F90DF91CF910895CF932D
:100C0000DF93CDB7DEB780917A01DF91CF91089560
:100C1000CF93DF9300D000D000D0CDB7DEB7809166
:100C20008001882309F0C3C080917B0190917C01F1
:100C3000019690937C0180937B0180917B01909140
:100C40007C01892BE9F580915A0190915B019A838F
:100C5000898380915C0190915D0190935B01809309
:100C60005A0189819A8190935D0180935C01809102
:100C700083018F5F8093830180915A0190915B0182
:100C8000FC018081882339F48FEF9FEF909301015D
:100C90008093000115C080915A0190915B01FC0185
:100CA00085819681FC01868197819C838B838B81D2
:100CB0009C81FC01828193819093010180930001CA
:100CC00020917B0130917C01809100019091010184
:100CD0002817390708F471C080915A0190915B017F
:100CE000FC018081882339F48FEF9FEF90930101FD
:100CF0008093000162C080915A0190915B01FC01D8
:100D000085819681FC01868197819C838B838B8171
:100D10009C81FC01828193819E838D8380917B01E4
:100D200090917C012D813E818217930738F48D814B
:100D30009E8190930101809300013FC08B819C8133
:100D400002960E94530F8B819C81FC0184899589B6
:100D5000892B29F08B819C810C960E94530F8B81EB
:100D60009C81FC01968980917E01891730F48B81EA
:100D70009C81FC01868980937E018B819C81AC01E2
:100D80004E5F5F4F8B819C81FC018689282F30E06C
:100D9000C901880F991F880F991F880F991F820F0B
:100DA000931F8C5D9E4FBA010E94820E95CF809159
:100DB00081018F5F8093810100C0000026960FB6ED
:100DC000F894DEBF0FBECDBFDF91CF910895CF93D2
:100DD000DF9300D0CDB7DEB780918001882349F042
:100DE00081E0809382015AC080917E01815080937E
:100DF0007E0180917E01282F30E0C901880F991F64
:100E0000880F991F880F991F820F931F8C5D9E4F2B
:100E1000FC018081882341F380917E01282F30E0FE
:100E2000C901880F991F880F991F880F991F820F7A
:100E3000931F8C5D9E4F9A83898389819A81FC01DF
:100E400081819281FC012281338189819A81FC0117
:100E50003283218389819A81FC01218132818981B8
:100E60009A8103962817390769F489819A81FC01D0
:100E700081819281FC012281338189819A81FC01E7
:100E80003283218389819A81FC0181819281FC01D5
:100E900086819781909323018093220100000F9017
:100EA0000F90DF91CF910895CF93DF9300D000D0C2
:100EB00000D0CDB7DEB79C838B837E836D8380911A
:100EC0002201909123019C01245F3F4F8B819C81E3
:100ED000B9010E94DB0E80912201909123010296BC
:100EE0000E94530F8D819E81019659F480912201B9
:100EF000909123010296BC0181E791E00E94820E4D
:100F00000EC080917B0190917C012D813E81820FEA
:100F1000931F9A83898389819A810E948D09000099
:100F200026960FB6F894DEBF0FBECDBFDF91CF91EE
:100F30000895CF93DF9300D000D00F92CDB7DEB7E6
:100F40009D838C838C819D81FC0185819681FC0130
:100F5000868197819B838A838A819B810C960E94DC
:100F6000530F80918001882369F58A819B810296C5
:100F70000E94530F8A819B81FC01968980917E019A
:100F8000891730F48A819B81FC01868980937E01D8
:100F90008A819B81AC014E5F5F4F8A819B81FC01FE
:100FA0008689282F30E0C901880F991F880F991F63
:100FB000880F991F820F931F8C5D9E4FBA010E946C
:100FC000820E08C08A819B810C96BC018EE591E05F
:100FD0000E94820E8A819B81FC01268980912201D8
:100FE00090912301FC018689281718F081E08983FC
:100FF00001C0198289810F900F900F900F900F9070
:10100000DF91CF910895CF93DF9300D0CDB7DEB7B6
:101010009A8389832091830189819A81FC012083AD
:1010200020917B0130917C0189819A81FC0132837E
:10103000218300000F900F90DF91CF910895CF93FF
:10104000DF9300D000D00F92CDB7DEB79B838A83A9
:101050007D836C830FB6F8940F928C819D81FC0187
:1010600080819181019611F419824BC08A819B8104
:10107000FC01908180918301981779F08A819B818E
:10108000FC012181328180917B0190917C0182174A
:10109000930718F081E0898334C020917B0130915F
:1010A0007C018A819B81FC0181819281281B390B03
:1010B0008C819D81FC018081918128173907F8F48A
:1010C00020917B0130917C018A819B81FC0181818F
:1010D0009281A901481B590BCA012C813D81F9015C
:1010E00020813181281B390B8C819D81FC0131834A
:1010F00020838A819B810E940308198202C081E0BB
:1011000089830F900FBE89810F900F900F900F90E1
:101110000F90DF91CF910895CF93DF93CDB7DEB7D6
:1011200081E0809382010000DF91CF910895CF93F9
:10113000DF9300D0CDB7DEB79A8389830E944D0933
:1011400080912401823010F00E94B6190E9496000E
:10115000F5CF0F931F93CF93DF93CDB7DEB72997CA
:101160000FB6F894DEBF0FBECDBF9A8389837C8310
:101170006B834D833F832E831987088789819A81EA
:1011800049962B813C8148E050E0B9010E94991DAD
:1011900089819A81FC0110A28D81843010F083E056
:1011A0008D8389819A812D81FC01268B89819A8189
:1011B0002D81FC0121A389819A8102960E94700EE3
:1011C00089819A810C960E94700E89819A81298169
:1011D0003A81FC01318720878D81882F90E024E0BF
:1011E00030E0281B390B89819A81FC0135872487DF
:1011F00089819A8129813A81FC01338B228B0000FD
:1012000029960FB6F894DEBF0FBECDBFDF91CF9108
:101210001F910F910895CF93DF930F92CDB7DEB753
:10122000198213C08981282F30E0C901880F991FC6
:10123000880F991F880F991F820F931F8C5D9E4FF7
:101240000E943A0E89818F5F89838981843050F3AF
:1012500088E491E00E943A0E81E591E00E943A0E06
:101260008EE591E00E943A0E87E691E00E943A0EE8
:1012700081E791E00E943A0E88E491E090935B014F
:1012800080935A0181E591E090935D0180935C0128
:1012900000000F90DF91CF910895CF93DF9300D09E
:1012A0000F92CDB7DEB780917001882379F10E944B
:1012B00043059091670181E0992309F080E08983DB
:1012C0000E9450058981882309F50FB6F8940F9282
:1012D00080916C0190916D01FC01868197819B83C7
:1012E0008A838A819B8102960E94530F80917A01A2
:1012F000815080937A0180917001815080937001B8
:101300000F900FBE8A819B810E94220A00000F90DD
:101310000F900F90DF91CF910895CF93DF9300D07E
:10132000CDB7DEB79A838983809122019091230102
:1013300029813A81FC013383228380917B01909142
:101340007C0129813A812817390778F4809122019C
:10135000909123019C012E5F3F4F80915C01909101
:101360005D01B9010E94DB0E1DC0809122019091A8
:1013700023019C012E5F3F4F80915A0190915B01A8
:10138000B9010E94DB0E8091000190910101298139
:101390003A812817390730F489819A8190930101A5
:1013A0008093000100000F900F90DF91CF9108957E
:1013B000CF93DF9300D000D000D0CDB7DEB79C83B1
:1013C0008B837E836D8382E290E00E94E91C9A8386
:1013D000898389819A81892B51F18D819E81892B05
:1013E00029F48B819C810E94E91C02C08D819E8121
:1013F00029813A81F901908F878B89819A81FC013B
:101400008789908D892B39F489819A810E942E1DBC
:101410001A8219820CC089819A81FC018789908D7A
:101420002B813C81A90165EA70E00E94921D8981AF
:101430009A8126960FB6F894DEBF0FBECDBFDF911E
:10144000CF910895CF93DF9300D0CDB7DEB79A83C5
:10145000898389819A81FC018789908D0E942E1D44
:1014600089819A810E942E1D00000F900F90DF91BC
:10147000CF910895CF93DF9300D0CDB7DEB78091A1
:101480002201909123019A83898389819A810F9007
:101490000F90DF91CF910895CF93DF9300D000D0CC
:1014A000CDB7DEB79C838B838B819C819A838983A4
:1014B00089819A81FC0126898091220190912301E2
:1014C000FC018689281708F06BC080912201909159
:1014D0002301FC018689882F90E024E030E0281B5E
:1014E000390B89819A81FC013587248789819A810A
:1014F000FC014285538589819A81FC018689282FC8
:1015000030E0C901880F991F880F991F880F991F14
:10151000820F931F8C5D9E4F48175907B9F589813B
:101520009A8102960E94530F80912201909123018B
:10153000FC01268989819A81FC01268B89819A8107
:10154000FC01968980917E01891730F489819A8106
:10155000FC01868980937E0189819A81AC014E5F6E
:101560005F4F89819A81FC018689282F30E0C9016B
:10157000880F991F880F991F880F991F820F931F3B
:101580008C5D9E4FBA010E94820E0AC0809122019A
:1015900090912301FC01268989819A81FC01268B87
:1015A00000000F900F900F900F90DF91CF91089552
:1015B000CF93DF9300D000D0CDB7DEB79C838B8371
:1015C0008B819C819A8389838B819C81892B09F4EF
:1015D0004EC089819A81FC01268989819A81FC010A
:1015E00081A1281709F443C089819A8102960E943B
:1015F000530F89819A81FC0121A189819A81FC0183
:10160000268B89819A81FC018689882F90E024E0CD
:1016100030E0281B390B89819A81FC0135872487AA
:1016200089819A81FC01968980917E01891730F425
:1016300089819A81FC01868980937E0189819A81C2
:10164000AC014E5F5F4F89819A81FC018689282F0A
:1016500030E0C901880F991F880F991F880F991FC3
:10166000820F931F8C5D9E4FBA010E94820E000074
:101670000F900F900F900F90DF91CF910895CF931F
:10168000DF9300D000D000D00F92CDB7DEB79D839E
:101690008C836E834F838AE190E00E94E91C9B83D8
:1016A0008A838A819B81892B09F477C08091850187
:1016B00090918601892B41F48A819B8190938601C8
:1016C000809385010E94C70D8E81833010F082E0E7
:1016D0008E838A819B81FC01118E108E8A819B8171
:1016E0002E81FC01268B8A819B812F81FC01278B17
:1016F0008A819B812C813D81FC01318320838A81F9
:101700009B8102960E94700E8A819B810C960E949A
:10171000700E8A819B812A813B81FC013187208761
:101720008A819B812A813B81FC01338B228B8E81B4
:10173000882F90E024E030E0281B390B8A819B81C0
:10174000FC01358724878A819B81FC0196898091E1
:10175000C101891730F48A819B81FC0186898093BD
:10176000C1018A819B81AC014E5F5F4F8A819B8161
:10177000FC018689282F30E0C901880F991F880F46
:10178000991F880F991F820F931F89579E4FBA0187
:101790000E94820E81E0898302C08FEF8983898154
:1017A00027960FB6F894DEBF0FBECDBFDF91CF9165
:1017B0000895CF93DF9300D000D000D0CDB7DEB72F
:1017C0009C838B837E836D838091C2019091C30142
:1017D0002B813C81820F931F9A838983809185019D
:1017E0009091860102960E94530F809185019091FD
:1017F000860129813A81FC01338322838091C201D1
:101800009091C30129813A812817390778F4809192
:101810008501909186019C012E5F3F4F8091B6011A
:101820009091B701B9010E94DB0E0EC08091850135
:10183000909186019C012E5F3F4F8091B401909161
:10184000B501B9010E94DB0E8D819E81892B61F06B
:1018500080918501909186019C01245F3F4F8D818D
:101860009E81B9010E94DB0E000026960FB6F89407
:10187000DEBF0FBECDBFDF91CF910895CF93DF9331
:1018800000D0CDB7DEB73CC0F8948091BD019091F7
:10189000BE01FC01868197819A83898389819A811F
:1018A0000C960E94530F789489819A8102960E9427
:1018B000530F89819A81FC0196898091C101891712
:1018C00030F489819A81FC0186898093C1018981E4
:1018D0009A81AC014E5F5F4F89819A81FC018689B4
:1018E000282F30E0C901880F991F880F991F880F92
:1018F000991F820F931F89579E4FBA010E94820E33
:101900008091B801882309F0BFCF000000000F903C
:101910000F90DF91CF910895CF93DF9300D000D047
:10192000CDB7DEB70E94D3059C018091C401909190
:10193000C501A901481B590BCA019093C7018093A7
:10194000C6018AC08091C2019091C3010196909313
:10195000C3018093C2018091C6019091C701019794
:101960009093C7018093C6018091C2019091C301F9
:10197000892B09F068C08091B4019091B5019A83D8
:1019800089838091B6019091B7019093B5018093BE
:10199000B40189819A819093B7018093B60153C0B5
:1019A0008091B4019091B501FC0185819681FC0183
:1019B000868197819C838B838B819C81FC01228112
:1019C00033818091C2019091C3018217930708F47B
:1019D00043C0F8948B819C8102960E94530F8B81A7
:1019E0009C81FC0184899589892B29F08B819C81BC
:1019F0000C960E94530F78948B819C81FC019689F0
:101A00008091C101891730F48B819C81FC0186890A
:101A10008093C1018B819C81AC014E5F5F4F8B81B4
:101A20009C81FC018689282F30E0C901880F991F0D
:101A3000880F991F880F991F820F931F89579E4FF8
:101A4000BA010E94820E8091B4019091B501FC010F
:101A50008081882309F0A4CF8091C6019091C701AD
:101A6000892B09F06FCF8091C2019091C3019093AF
:101A7000C5018093C40100000F900F900F900F904C
:101A8000DF91CF910895CF93DF9300D0CDB7DEB72C
:101A90000E943E0C0E948C0C0AC08091C1018823D8
:101AA00009F46FC08091C10181508093C101809180
:101AB000C101282F30E0C901880F991F880F991F95
:101AC000880F991F820F931F89579E4FFC018081B9
:101AD000882319F38091C101282F30E0C901880FB4
:101AE000991F880F991F880F991F820F931F89577D
:101AF0009E4F9A83898389819A81FC018181928199
:101B0000FC012281338189819A81FC013283218306
:101B100089819A81FC012181328189819A81039690
:101B20002817390769F489819A81FC0181819281A2
:101B3000FC012281338189819A81FC0132832183D6
:101B400089819A81FC0181819281FC018681978142
:101B50009093860180938501809185019091860103
:101B6000FC01208131818091850190918601FC01E9
:101B700047898091850190918601642FF90109952B
:101B800001C000000F900F90DF91CF910895CF9387
:101B9000DF930F92CDB7DEB7198213C08981282F4A
:101BA00030E0C901880F991F880F991F880F991F6E
:101BB000820F931F89579E4F0E943A0E89818F5F33
:101BC00089838981833050F382EA91E00E943A0E42
:101BD0008BEA91E00E943A0E88EB91E00E943A0E67
:101BE00082EA91E09093B5018093B4018BEA91E091
:101BF0009093B7018093B60100000F90DF91CF91D1
:101C00000895CF93DF9300D000D00F92CDB7DEB709
:101C10009D838C838C819D81FC0185819681FC0153
:101C2000868197819B838A838A819B810C960E94FF
:101C3000530F8A819B810C96BC0188EB91E00E9436
:101C4000820E8A819B81FC01268980918501909179
:101C50008601FC018689281718F081E0898301C07C
:101C6000198289810F900F900F900F900F90DF9144
:101C7000CF910895CF93DF9300D0CDB7DEB79A838D
:101C8000898389819A819C012D5F3F4F89819A8147
:101C9000FC013283218389819A812FEF3FEFFC0180
:101CA0003483238389819A819C012D5F3F4F8981F1
:101CB0009A81FC013683258389819A819C012D5F5D
:101CC0003F4F89819A81FC013087278389819A81DE
:101CD000FC01108200000F900F90DF91CF910895CA
:101CE000CF93DF9300D0CDB7DEB79A838983898104
:101CF0009A81FC011186108600000F900F90DF91F1
:101D0000CF910895CF93DF9300D000D000D0CDB70E
:101D1000DEB79C838B837E836D838B819C81FC01EA
:101D2000818192819A83898389819A81FC012281B0
:101D300033818D819E81FC01338322838B819C8141
:101D4000FC01218132818D819E81FC0135832483B8
:101D500089819A81FC01828193812D813E81FC01E0
:101D60003583248389819A812D813E81FC013383CF
:101D700022838B819C812D813E81FC0132832183D2
:101D80008D819E812B813C81FC01318720878B8155
:101D90009C81FC01808121E0280F8B819C81FC01CA
:101DA0002083000026960FB6F894DEBF0FBECDBF8D
:101DB000DF91CF910895CF93DF93CDB7DEB728970A
:101DC0000FB6F894DEBF0FBECDBF9E838D8378879C
:101DD0006F838F819885FC01808191819C838B83A7
:101DE0008B819C81019641F48D819E81FC018781CC
:101DF00090859A8389831AC08D819E8103969A83E8
:101E0000898307C089819A81FC01828193819A83A9
:101E1000898389819A81FC0182819381FC0180817F
:101E200091812B813C812817390760F789819A813C
:101E3000FC01228133818F819885FC0133832283C9
:101E40008F819885FC01828193812F813885FC01E7
:101E5000358324838F81988529813A81FC013583DC
:101E6000248389819A812F813885FC0133832283E1
:101E70008F8198852D813E81FC01318720878D815E
:101E80009E81FC01808121E0280F8D819E81FC01D3
:101E90002083000028960FB6F894DEBF0FBECDBF9A
:101EA000DF91CF910895CF93DF9300D000D0CDB7CD
:101EB000DEB79C838B838B819C81FC018281938123
:101EC0002B813C81F90124813581FC0135832483F8
:101ED0008B819C81FC01848195812B813C81F9015E
:101EE00022813381FC01338322838B819C81FC011D
:101EF000808591859A83898389819A81FC0181817A
:101F000092812B813C812817390751F48B819C8168
:101F1000FC012481358189819A81FC0132832183EE
:101F20008B819C81FC011186108689819A81FC013C
:101F300080812FEF280F89819A81FC012083000086
:101F40000F900F900F900F90DF91CF910895CF9346
:101F5000DF93CDB7DEB729970FB6F894DEBF0FBE7B
:101F6000CDBF8F83688749871A8219828F81882322
:101F700009F49AC08FE190E00E94E91C9C838B8356
:101F80008B819C81892B09F48FC08F81282F30E0B1
:101F90008885882F90E0289FA001299F500D389FA9
:101FA000500D1124CA0101969E838D838D819E81DF
:101FB0000E94E91C9C018B819C81FC013183208360
:101FC0008B819C81FC0180819181892B09F468C0FF
:101FD0008B819C81FC01808191812F81422F50E077
:101FE0002885222F30E0429FB001439F700D529F01
:101FF000700D11249B01280F391F8B819C81FC01DE
:10200000338322838B819C81FC01128E8B819C8186
:10201000FC01208131818B819C81FC0135832483EB
:102020008B819C81FC01808191812F81222F30E066
:10203000A901415051092885222F30E0429FB0016B
:10204000439F700D529F700D11249B01280F391F63
:102050008B819C81FC01378326838B819C812F811E
:10206000FC01238F8B819C812885FC01248F8B812F
:102070009C812FEFFC01258F8B819C812FEFFC0130
:10208000268F8B819C8108960E943A0E8B819C81C1
:1020900041960E943A0E8B819C819A83898304C069
:1020A0008B819C810E942E1D89819A8129960FB671
:1020B000F894DEBF0FBECDBFDF91CF910895CF93CF
:1020C000DF9300D00F92CDB7DEB78B838FE190E026
:1020D0000E94E91C9A83898389819A81892BF1F175
:1020E00089819A81FC011382128289819A81FC0183
:1020F0001182108289819A81FC0115821482898162
:102100009A81FC011782168289819A81FC01128EC4
:1021100089819A8121E0FC01238F89819A81FC01C8
:10212000148E89819A812FEFFC01258F89819A81F4
:102130002FEFFC01268F89819A8108960E943A0E22
:1021400089819A8141960E943A0E89819A8120E084
:1021500040E050E060E070E00E94B61089819A8112
:102160000F900F900F90DF91CF910895CF93DF9351
:10217000CDB7DEB72B970FB6F894DEBF0FBECDBF3D
:102180009E838D8378876F835A8749872B8719822F
:102190000FB6F8940F928D819E81FC01228D8D8166
:1021A0009E81FC01838D2817D8F42F8138858D817D
:1021B0009E814B85B9010E9438138D819E81FC015F
:1021C0008189882349F08D819E8141960E949907DB
:1021D000813011F40E94B6190F900FBE81E060C0EB
:1021E00089859A85892B21F40F900FBE80E058C015
:1021F0008981882331F4CE0102960E94030881E090
:1022000089830F900FBE0E9443050FB6F8940F927A
:102210008D819E81FC01858D8F3F21F48D819E8172
:10222000FC01158E8D819E81FC01868D8F3F21F4EE
:102230008D819E81FC01168E0F900FBE9E01275F3F
:102240003F4FCE010296B9010E941F08882309F56D
:102250008D819E810E94E3148823A1F029853A850F
:102260008D819E810896B9010E9454078D819E81BF
:102270000E9449140E945005882309F089CF0E94CA
:10228000B61986CF8D819E810E9449140E94500507
:102290007FCF8D819E810E9449140E94500580E06D
:1022A0002B960FB6F894DEBF0FBECDBFDF91CF9156
:1022B0000895CF93DF93CDB7DEB729970FB6F89483
:1022C000DEBF0FBECDBF9C838B837E836D8358871B
:1022D0004F8329871A828B819C81FC01228D8B81FF
:1022E0009C81FC01838D281770F52D813E818B81A7
:1022F0009C814985B9010E9438138B819C81FC0126
:10230000868D8F3F99F48B819C81FC018189882384
:10231000B9F08B819C8141960E949907882381F0B6
:102320008F81988521E0FC0120830AC08B819C81EC
:10233000FC01868D8F5F282F8B819C81FC01268F6D
:1023400081E0898301C01982898129960FB6F894AA
:10235000DEBF0FBECDBFDF91CF910895CF93DF9346
:10236000CDB7DEB72D970FB6F894DEBF0FBECDBF49
:1023700098878F837A8769875C874B872D87198237
:102380000FB6F8940F928F819885FC01828D882377
:1023900009F454C08F819885FC01868197819B83C5
:1023A0008A8329853A858F819885B9010E94F71320
:1023B0008D85882349F58F819885FC01828D2FEFCB
:1023C000280F8F819885FC01228F8F819885FC01D1
:1023D00080819181892B41F40E943A0A9C018F816E
:1023E0009885FC01338322838F819885FC01808549
:1023F000882301F18F81988508960E949907813082
:10240000C9F40E94B61916C08F8198852A813B8134
:10241000FC01378326838F819885FC01818988237D
:1024200049F08F81988541960E949907882311F081
:102430000E94B6190F900FBE81E073C08B859C85FA
:10244000892B21F40F900FBE80E06BC08981882317
:1024500031F4CE0104960E94030881E089830F9035
:102460000FBE0E9443050FB6F8940F928F81988596
:10247000FC01858D8F3F21F48F819885FC01158E9D
:102480008F819885FC01868D8F3F21F48F819885FF
:10249000FC01168E0F900FBE9E01255F3F4FCE01AF
:1024A0000496B9010E941F088823A1F58F819885A1
:1024B0000E94AE14882339F18F819885FC018081B8
:1024C0009181892B61F40FB6F8940F928F819885D2
:1024D000FC01828193810E944C0A0F900FBE2B85D4
:1024E0003C858F8198854196B9010E9454078F8160
:1024F00098850E9449140E945005882309F040CF16
:102500000E94B6193DCF8F8198850E9449140E9480
:10251000500536CF8F8198850E9449140E9450053E
:1025200080E02D960FB6F894DEBF0FBECDBFDF91D1
:10253000CF910895CF93DF93CDB7DEB728970FB62D
:10254000F894DEBF0FBECDBF9C838B837E836D83EB
:1025500058874F831A828B819C81FC01828D88234E
:10256000B9F12D813E818B819C81B9010E94F713C5
:102570008B819C81FC01828D2FEF280F8B819C81A8
:10258000FC01228F8B819C81FC01858D8F3F99F40A
:102590008B819C81FC0180858823B9F08B819C8193
:1025A00008960E949907882381F08F81988521E001
:1025B000FC0120830AC08B819C81FC01858D8F5F8B
:1025C000282F8B819C81FC01258F81E0898301C0AC
:1025D0001982898128960FB6F894DEBF0FBECDBF51
:1025E000DF91CF910895CF93DF9300D00F92CDB7B5
:1025F000DEB79B838A830FB6F8940F928A819B8102
:10260000FC01828D89830F900FBE89810F900F90FE
:102610000F90DF91CF910895CF93DF9300D00F9269
:10262000CDB7DEB79B838A838A819B81FC01828D33
:10263000898389810F900F900F90DF91CF9108953A
:10264000CF93DF9300D0CDB7DEB79A83898389819A
:102650009A81FC01808191810E942E1D89819A813D
:102660000E942E1D00000F900F90DF91CF910895D2
:10267000CF93DF9300D000D00F92CDB7DEB79A830F
:1026800089837C836B834D8389819A81FC01848D4E
:102690008823A9F489819A81FC0180819181892B09
:1026A00009F092C089819A81FC01828193810E9404
:1026B000D80A89819A81FC011382128285C08D819A
:1026C0008823D9F589819A81FC01848D482F50E0B7
:1026D00089819A81FC01848195812B813C81B9019A
:1026E0000E94891D89819A81FC012481358189811B
:1026F0009A81FC01848D882F90E0280F391F8981F1
:102700009A81FC013583248389819A81FC0124818B
:10271000358189819A81FC0182819381281739074B
:1027200008F452C089819A81FC012081318189811C
:102730009A81FC013583248347C089819A81FC01F9
:10274000848D482F50E089819A81FC018681978190
:102750002B813C81B9010E94891D89819A81FC01EC
:102760002681378189819A81FC01848D882F90E0B0
:10277000919581959109280F391F89819A81FC01D2
:102780003783268389819A81FC012681378189815B
:102790009A81FC018081918128173907A8F48981E9
:1027A0009A81FC012281338189819A81FC01848D87
:1027B000882F90E0919581959109280F391F898183
:1027C0009A81FC013783268389819A81FC01828D5D
:1027D00021E0280F89819A81FC01228F00000F904F
:1027E0000F900F900F900F90DF91CF910895CF939E
:1027F000DF9300D000D0CDB7DEB79A8389837C8386
:102800006B8389819A81FC0180819181892BC9F137
:1028100089819A81FC012681378189819A81FC0115
:10282000848D882F90E0280F391F89819A81FC01BF
:102830003783268389819A81FC01268137818981AA
:102840009A81FC01828193812817390750F0898190
:102850009A81FC012081318189819A81FC01378331
:10286000268389819A81FC01848D482F50E08981DB
:102870009A81FC01268137818B819C81B9010E945C
:10288000891D00000F900F900F900F90DF91CF9156
:102890000895CF93DF9300D0CDB7DEB79A838983B5
:1028A0000FB6F8940F9219C089819A81FC01818931
:1028B0008823D1F089819A8141960E9499078823C3
:1028C00011F00E948C0889819A81FC01868D8150CB
:1028D000282F89819A81FC01268F89819A81FC01A8
:1028E000868D18160CF301C0000089819A812FEFA4
:1028F000FC01268F0F900FBE0FB6F8940F9219C0EF
:1029000089819A81FC0180858823D1F089819A810F
:1029100008960E949907882311F00E948C088981EB
:102920009A81FC01858D8150282F89819A81FC0133
:10293000258F89819A81FC01858D18160CF301C0C1
:10294000000089819A812FEFFC01258F0F900FBE27
:1029500000000F900F90DF91CF910895CF93DF93F8
:1029600000D00F92CDB7DEB79B838A830FB6F89461
:102970000F928A819B81FC01928D81E0992309F05D
:1029800080E089830F900FBE89810F900F900F9088
:10299000DF91CF910895CF93DF9300D00F92CDB701
:1029A000DEB79B838A838A819B81FC01928D81E0C3
:1029B000992309F080E0898389810F900F900F900F
:1029C000DF91CF910895CF93DF9300D00F92CDB7D1
:1029D000DEB79B838A830FB6F8940F928A819B811E
:1029E000FC01228D8A819B81FC01938D81E0291756
:1029F00009F080E089830F900FBE89810F900F90BE
:102A00000F90DF91CF910895CF93DF9300D00F9275
:102A1000CDB7DEB79B838A838A819B81FC01228D9F
:102A20008A819B81FC01938D81E0291709F080E068
:102A3000898389810F900F900F90DF91CF91089536
:102A4000CF93DF9300D000D000D00F92CDB7DEB788
:102A50009B838A837D836C835F834E83F8948A8112
:102A60009B810E94E3148823A1F08E819F81892B92
:102A700069F08A819B819C01285F3F4F8E819F81F5
:102A8000B9010E94D90B78948CEF2DC0789480E026
:102A90002AC078940000F8948A819B81FC01228DE1
:102AA0008A819B81FC01838D2817D0F42C813D8184
:102AB0008A819B8140E0B9010E94381381E08983BB
:102AC0008A819B81FC018189882359F08A819B81BD
:102AD00041960E94010E882321F08BEF898301C06B
:102AE00019827894898127960FB6F894DEBF0FBEBD
:102AF000CDBFDF91CF910895CF93DF9300D000D069
:102B000000D00F92CDB7DEB79B838A837D836C8321
:102B10005F834E83F8948A819B81FC01828D882398
:102B2000A1F48E819F81892B69F08A819B819C0110
:102B30002F5E3F4F8E819F81B9010E94D90B7894FF
:102B40008CEF65C0789480E062C078940000F894BF
:102B50008A819B81FC01828D882309F455C08A817A
:102B60009B81FC01268137818A819B81FC01848DB8
:102B7000882F90E0280F391F8A819B81FC013783C1
:102B800026838A819B81FC01268137818A819B81F2
:102B9000FC01828193812817390750F08A819B813B
:102BA000FC01208131818A819B81FC01378326834E
:102BB0008A819B81FC01828D2FEF280F8A819B8166
:102BC000FC01228F8A819B81FC01848D482F50E07B
:102BD0008A819B81FC01268137818C819D81B9018D
:102BE0000E94891D81E089838A819B81FC01808507
:102BF000882359F08A819B8108960E94010E8823C0
:102C000021F08BEF898301C01982789489812796FE
:102C10000FB6F894DEBF0FBECDBFDF91CF91089500
:102C2000CF93DF9300D000D00F92CDB7DEB79A8359
:102C300089837C836B834D8389819A81FC01228DFA
:102C400089819A81FC01838D2817D0F42B813C81E6
:102C500089819A8140E0B9010E9438138D818823CF
:102C600079F489819A81FC018189882349F08981DD
:102C70009A8141960E94010E882311F081E001C0E3
:102C80008D810F900F900F900F900F90DF91CF914B
:102C90000895CF93DF9300D000D000D00F92CDB72E
:102CA000DEB79B838A837D836C835F834E838A81B7
:102CB0009B81FC01828D882309F45EC08A819B81FF
:102CC000FC01268137818A819B81FC01848D882FBC
:102CD00090E0280F391F8A819B81FC01378326836E
:102CE0008A819B81FC01268137818A819B81FC013D
:102CF000828193812817390750F08A819B81FC01DA
:102D0000208131818A819B81FC01378326838A81DE
:102D10009B81FC01828D2FEF280F8A819B81FC0112
:102D2000228F8A819B81FC01848D482F50E08A810B
:102D30009B81FC01268137818C819D81B9010E9494
:102D4000891D8E819F81FC018081882391F48A8175
:102D50009B81FC018085882361F08A819B81089694
:102D60000E94010E882329F08E819F8121E0FC01C1
:102D7000208381E0898301C01982898127960FB65B
:102D8000F894DEBF0FBECDBFDF91CF910895AF9213
:102D9000BF92CF92DF92EF92FF920F93CF93DF9388
:102DA000CDB7DEB72A970FB6F894DEBF0FBECDBF02
:102DB00089834A835B836C837D832E838E8180939A
:102DC000CA018A819B81AC81BD818F839887A98745
:102DD000BA8748E16F81788589859A850E944F1B63
:102DE00089818150A12CB12CC12CD12CE12CF12C4A
:102DF000082F20E030E045E550E065E171E085E234
:102E000097E10E94C000A12CB12CC12CD12CE12C47
:102E1000F12C098120E030E045E550E06BE171E004
:102E200082E797E10E94C00000002A960FB6F8944E
:102E3000DEBF0FBECDBFDF91CF910F91FF90EF901E
:102E4000DF90CF90BF90AF900895CF93DF9300D0E5
:102E500000D00F92CDB7DEB79D838C8381E4898348
:102E60000CC08091C8019091C90140E050E0698197
:102E70000E94F31B89818F5F8983898189358CF357
:102E80000E94D30503969B838A834A815B81CA0192
:102E9000969587959C01A5E7BAED0E947A1D9C0145
:102EA0000024220F331F001C220F331F001C232F6E
:102EB000302D66E9629FC001639F900D11249A0135
:102EC000281B390BC9019B838A838A819B81C29706
:102ED00020F482E390E09B838A838A819B810E9415
:102EE0008802BCCFCF93DF9300D000D000D0CDB705
:102EF000DEB79E838D831A821B8281E4898318C08A
:102F00008091C8019091C9019E012C5F3F4F4FEF06
:102F10005FEFB9010E94CD1B882339F08C81998124
:102F2000981719F081E08A8306C089818F5F8983B1
:102F3000898189352CF38A818130A9F40CC0809174
:102F4000C8019091C9019E012C5F3F4F4FEF5FEF89
:102F5000B9010E94CD1B8C81883589F78B818F5FE9
:102F60008B831A82CACF8B8182303CF68091CB0151
:102F70008F5F8093CB01C1CFCF93DF930F92CDB7FB
:102F8000DEB78091CB01882311F4198202C081E061
:102F900089831092CB0189810F90DF91CF910895A1
:102FA000CF93DF93CDB7DEB728970FB6F894DEBF87
:102FB0000FBECDBF9C838B837E836D8358874F83E9
:102FC0008B819C8121E1FC0120838B819C81019775
:102FD0009C838B838B819C8122E2FC0120838B81EB
:102FE0009C8101979C838B838B819C8123E3FC01D3
:102FF00020838B819C8101979C838B838D819E8113
:103000009A83898329818B819C81FC0120838B8118
:103010009C8101979C838B8389819A81892F992731
:103020009A83898329818B819C81FC0120838B81F8
:103030009C8101979C838B838B819C81FC011082F6
:103040008B819C8101979C838B838B819C8120E861
:10305000FC0120838B819C8101979C838B838B81D6
:103060009C81FC0110828B819C8101979C838B83C6
:103070008B819C8122E0FC0120838B819C810197C4
:103080009C838B838B819C8123E0FC0120838B813B
:103090009C8101979C838B838B819C8124E0FC0124
:1030A00020838B819C8101979C838B838B819C8166
:1030B00025E0FC0120838B819C8101979C838B837D
:1030C0008B819C8126E0FC0120838B819C81019770
:1030D0009C838B838B819C8127E0FC0120838B81E7
:1030E0009C8101979C838B838B819C8128E0FC01D0
:1030F00020838B819C8101979C838B838B819C8116
:1031000029E0FC0120838B819C8101979C838B8328
:103110008B819C8120E1FC0120838B819C81019724
:103120009C838B838B819C8121E1FC0120838B819B
:103130009C8101979C838B838B819C8122E1FC0184
:1031400020838B819C8101979C838B838B819C81C5
:1031500023E1FC0120838B819C8101979C838B83DD
:103160008B819C8124E1FC0120838B819C810197D0
:103170009C838B838B819C8125E1FC0120838B8147
:103180009C8101979C838B838B819C8126E1FC0130
:1031900020838B819C8101979C838B838B819C8175
:1031A00027E1FC0120838B819C8101979C838B8389
:1031B0008B819C8128E1FC0120838B819C8101977C
:1031C0009C838B838B819C8129E1FC0120838B81F3
:1031D0009C8101979C838B838B819C8120E2FC01E5
:1031E00020838B819C8101979C838B838B819C8125
:1031F00021E2FC0120838B819C8101979C838B833E
:103200008B819C8122E2FC0120838B819C81019730
:103210009C838B838B819C8123E2FC0120838B81A7
:103220009C8101979C838B838F8198859A83898366
:1032300029818B819C81FC0120838B819C8101975A
:103240009C838B8389819A81892F99279A8389838B
:1032500029818B819C81FC0120838B819C8101973A
:103260009C838B838B819C8126E2FC0120838B8154
:103270009C8101979C838B838B819C8127E2FC013D
:1032800020838B819C8101979C838B838B819C8184
:1032900028E2FC0120838B819C8101979C838B8396
:1032A0008B819C8129E2FC0120838B819C81019789
:1032B0009C838B838B819C8120E3FC0120838B8109
:1032C0009C8101979C838B838B819C8121E3FC01F2
:1032D00020838B819C8101979C838B838B819C8134
:1032E00028960FB6F894DEBF0FBECDBFDF91CF9109
:1032F0000895CF93DF93CDB7DEB70E946C1AA091EB
:103300002201B0912301CD91CDBFDD91DEBFFF91B0
:10331000EF91DF91CF91BF91AF919F918F917F916D
:103320006F915F914F913F912F911F910F91FF905E
:10333000EF90DF90CF90BF90AF909F908F907F9055
:103340006F905F904F903F902F901F900F900FBE07
:103350000F90089581E0DF91CF910895CF93DF938F
:10336000CDB7DEB70000DF91CF9108950F920FB671
:10337000F8940F921F9211242F923F924F925F92D6
:103380006F927F928F929F92AF92BF92CF92DF9275
:10339000EF92FF920F931F932F933F934F935F935F
:1033A0006F937F938F939F93AF93BF93CF93DF934D
:1033B000EF93FF93A0912201B09123010DB60D92DE
:1033C0000EB60D920E94E706A0912201B091230152
:1033D000CD91CDBFDD91DEBFFF91EF91DF91CF9118
:1033E000BF91AF919F918F917F916F915F914F911D
:1033F0003F912F911F910F91FF90EF90DF90CF9011
:10340000BF90AF909F908F907F906F905F904F9004
:103410003F902F901F900F900FBE0F9008950000C7
:103420000F920FB6F8940F921F9211242F923F9291
:103430004F925F926F927F928F929F92AF92BF92C4
:10344000CF92DF92EF92FF920F931F932F933F93B0
:103450004F935F936F937F938F939F93AF93BF939C
:10346000CF93DF93EF93FF93A0912201B0912301BB
:103470000DB60D920EB60D920E9408060E94E70648
:10348000A0912201B0912301CD91CDBFDD91DEBF8E
:10349000FF91EF91DF91CF91BF91AF919F918F916C
:1034A0007F916F915F914F913F912F911F910F915C
:1034B000FF90EF90DF90CF90BF90AF909F908F9054
:1034C0007F906F905F904F903F902F901F900F9044
:1034D0000FBE0F9008950000CF93DF9300D000D06F
:1034E0000F92CDB7DEB784E690E0A0E0B0E089832C
:1034F0009A83AB83BC8389819A81AB81BC816894B8
:1035000015F8B695A795979587951694D1F7898361
:103510009A83AB83BC8389819A81AB81BC810197FB
:10352000A109B10989839A83AB83BC8388E890E0C1
:1035300029813A81FC013183208380E890E0FC01FD
:10354000208180E890E02C7FFC0120838BE08D833C
:1035500081E890E02D81FC0120838FE690E0FC0162
:1035600080818D838D8182608D838FE690E02D81B7
:10357000FC01208300000F900F900F900F900F9090
:10358000DF91CF9108950E94101A189500000F93B3
:103590001F93CF93DF93CDB7DEB72E970FB6F89476
:1035A000DEBF0FBECDBF6E837F83888799874A8732
:1035B0000FB6F8940F9240E061E08A850E94A70F51
:1035C0009093CD018093CC0140E061E08A850E9418
:1035D000A70F9093CF018093CE018E819F81A88504
:1035E000B985880F991FAA1FBB1F880F991FAA1F93
:1035F000BB1F880F991FAA1FBB1F880F991FAA1FE7
:10360000BB1F8C019D0180E49DE0A3E0B0E08B87AF
:103610009C87AD87BE876B857C858D859E85A9013E
:1036200098010E94581DDA01C9010197A109B10949
:1036300089839A83AB83BC8389818D8384EC90E0FA
:103640002D81DC012C9389819A81AB81BC81892FEA
:103650009A2FAB2FBB2789839A83AB83BC83898145
:103660008D8385EC90E02D81FC01208381EC90E03E
:1036700028E9DC012C9382EC90E026E8FC01208311
:103680000F900FBE80E090E02E960FB6F894DEBF4C
:103690000FBECDBFDF91CF911F910F9108950F9372
:1036A0001F93CF93DF93CDB7DEB729970FB6F8946A
:1036B000DEBF0FBECDBF69837A838B839C834D832E
:1036C0000FB6F8940F9240E061E08D810E94A70F41
:1036D0009093CD018093CC0140E061E08D810E9408
:1036E000A70F9093CF018093CE0189819A81AB81FE
:1036F000BC81805B9C43AF4FBF4F9C01AD01220F4B
:10370000331F441F551F220F331F441F551F2E8385
:103710003F834887598789819A81AB81BC81880F13
:10372000991FAA1FBB1F880F991FAA1FBB1F880FB5
:10373000991FAA1FBB1F8C019D016E817F81888507
:103740009985A90198010E94581DDA01C9019C01BF
:1037500084EC90E021503109FC013183208380EC1E
:1037600090E022E0FC01208381EC90E028E9FC015C
:10377000208382EC90E026E8FC0120830F900FBEAE
:1037800080E090E029960FB6F894DEBF0FBECDBF63
:10379000DF91CF911F910F910895CF93DF9300D0C8
:1037A00000D000D0CDB7DEB79A8389837C836B834A
:1037B0005E834D838091CC019091CD014D815E81DE
:1037C0006B817C8120E00E94AE11882311F081E0A2
:1037D00001C080E026960FB6F894DEBF0FBECDBFC5
:1037E000DF91CF910895CF93DF9300D000D000D028
:1037F000CDB7DEB79B838A836C835E834D838091D4
:10380000CE019091CF014D815E81BE016C5F7F4FF3
:1038100020E00E94B610813011F080E00EC081ECF3
:1038200090E0FC018081898389818062898381ECB9
:1038300090E02981FC01208381E026960FB6F89460
:10384000DEBF0FBECDBFDF91CF910895CF93DF9341
:1038500000D000D0CDB7DEB79C838B830FB6F89431
:103860000F9281EC90E0FC018081898389818F7DBA
:10387000898381EC90E02981FC01208381EC90E038
:10388000FC0180818A838A818F778A8381EC90E032
:103890002A81FC0120830F900FBE00000F900F9033
:1038A0000F900F90DF91CF9108951F920F920FB656
:1038B0000F9211242F933F934F935F936F937F93B6
:1038C0008F939F93AF93BF93EF93FF93CF93DF9328
:1038D00000D0CDB7DEB71A8286EC90E0FC01808183
:1038E00089838091CC019091CD01AE014E5F5F4FF5
:1038F00020E0BE016F5F7F4F0E9459118A818823AB
:1039000011F00E94B61900000F900F90DF91CF9137
:10391000FF91EF91BF91AF919F918F917F916F91A7
:103920005F914F913F912F910F900FBE0F901F907D
:1039300018951F920F920FB60F9211242F933F9359
:103940004F935F936F937F938F939F93AF93BF93A7
:10395000EF93FF93CF93DF9300D00F92CDB7DEB7F5
:103960008091CE019091CF01AE014D5F5F4F9E01DE
:103970002E5F3F4FB9010E949A12813031F42A81A3
:1039800086EC90E0FC0120830DC081EC90E0FC010E
:103990008081898389818F7D898381EC90E0298171
:1039A000FC01208300000F900F900F90DF91CF91CA
:1039B000FF91EF91BF91AF919F918F917F916F9107
:1039C0005F914F913F912F910F900FBE0F901F90DD
:1039D0001895CF93DF9300D000D0CDB7DEB79C838E
:1039E0008B831A8219820E944305209174083091BA
:1039F00075088B819C81820F931F843A964018F53D
:103A000020917408309175088B819C81280F391F93
:103A1000809174089091750882179307A0F48091A3
:103A200074089091750880539E4F9A8389832091E2
:103A30007408309175088B819C81820F931F90933D
:103A40007508809374080E94500589819A810F90AF
:103A50000F900F900F90DF91CF910895CF93DF9348
:103A600000D0CDB7DEB79A83898300000F900F9006
:103A7000DF91CF910895CF93DF93CDB7DEB710924A
:103A80007508109274080000DF91CF910895CF93CC
:103A9000DF93CDB7DEB7809174089091750824EA62
:103AA00036E0A901481B590BCA01DF91CF91089557
:103AB000A1E21A2EAA1BBB1BFD010DC0AA1FBB1F32
:103AC000EE1FFF1FA217B307E407F50720F0A21BA4
:103AD000B30BE40BF50B661F771F881F991F1A9411
:103AE00069F760957095809590959B01AC01BD013B
:103AF000CF010895A29FB001B39FC001A39F700D95
:103B0000811D1124911DB29F700D811D1124911DE5
:103B10000895FB01DC0102C001900D92415050401C
:103B2000D8F70895DC0101C06D9341505040E0F793
:103B30000895FB01DC014150504048F001900D9286
:103B40000020C9F701C01D9241505040E0F7089590
:043B5000F894FFCF17
:103B5400FFFF7461736B3031007461736B3032003A
:103B640049444C4500434F4D547800434F4D5278DF
:023B740000004F
:00000001FF
