:100000000C9434000C9451000C9451000C94510049
:100010000C9451000C9451000C9451000C9451001C
:100020000C9451000C9451000C9451000C94BA198A
:100030000C9451000C9451000C9451000C945100FC
:100040000C9451000C9451000C944C1B0C94901B7C
:100050000C9451000C9451000C9451000C945100DC
:100060000C9451000C94510011241FBECFEFD8E026
:10007000DEBFCDBF11E0A0E0B1E0E4E2F9E302C0F1
:1000800005900D92A631B107D9F728E0A6E1B1E0BD
:1000900001C01D92A636B207E1F70E9453000C94EE
:1000A000901C0C940000AF92BF92CF92DF92EF921F
:1000B000FF920F93CF93DF9300D000D0CDB7DEB780
:1000C000A12CB12CC12CD12CCE0101967C0100E0D9
:1000D00020E030E045E550E062E071E08EE990E03C
:1000E0000E94480CCE010396A12CB12CC12CD12C1E
:1000F0007C0101E020E030E045E550E069E071E09E
:1001000086EA90E00E94480C0E94871080E090E010
:100110000F900F900F900F90DF91CF910F91FF9064
:10012000EF90DF90CF90BF90AF900895CF93DF9383
:10013000CDB7DEB70000DF91CF910895CF93DF9365
:1001400000D0CDB7DEB79A838983FFCFCF93DF93FB
:1001500000D0CDB7DEB79A83898384E290E020E2B5
:10016000FC01208385E290E020E2FC012083FACFAD
:10017000CF93DF9300D0CDB7DEB79A838983FFCFCB
:10018000CF93DF9300D000D000D00F92CDB7DEB771
:100190009D838C836E834F838AE190E00E94E01BF5
:1001A0009B838A838A819B81892B09F477C0809104
:1001B000160190911701892B41F48A819B819093BC
:1001C0001701809316010E9448038E81833010F03E
:1001D00082E08E838A819B81FC01118E108E8A8140
:1001E0009B812E81FC01268B8A819B812F81FC01C2
:1001F000278B8A819B812C813D81FC013183208367
:100200008A819B8102960E94F1038A819B810C96D0
:100210000E94F1038A819B812A813B81FC01318705
:1002200020878A819B812A813B81FC01338B228B31
:100230008E81882F90E024E030E0281B390B8A81E2
:100240009B81FC01358724878A819B81FC019689EB
:1002500080915201891730F48A819B81FC01868943
:10026000809352018A819B81AC014E5F5F4F8A81EE
:100270009B81FC018689282F30E0C901880F991FD6
:10028000880F991F880F991F820F931F885E9E4FBA
:10029000BA010E94030481E0898302C08FEF898341
:1002A000898127960FB6F894DEBF0FBECDBFDF91D0
:1002B000CF910895CF93DF9300D000D000D0CDB779
:1002C000DEB79C838B837E836D83809153019091F5
:1002D00054012B813C81820F931F9A8389838091E3
:1002E00016019091170102960E94D4048091160184
:1002F0009091170129813A81FC01338322838091F7
:1003000053019091540129813A812817390778F4D3
:1003100080911601909117019C012E5F3F4F8091B3
:10032000470190914801B9010E945C040EC0809180
:100330001601909117019C012E5F3F4F809145015E
:1003400090914601B9010E945C048D819E81892BA8
:1003500061F080911601909117019C01245F3F4F3D
:100360008D819E81B9010E945C04000026960FB623
:10037000F894DEBF0FBECDBFDF91CF910895CF932C
:10038000DF9300D0CDB7DEB73CC0F89480914E012A
:1003900090914F01FC01868197819A83898389819D
:1003A0009A810C960E94D404789489819A8102964D
:1003B0000E94D40489819A81FC019689809152011E
:1003C000891730F489819A81FC01868980935201D2
:1003D00089819A81AC014E5F5F4F89819A81FC01CE
:1003E0008689282F30E0C901880F991F880F991F2F
:1003F000880F991F820F931F885E9E4FBA010E943B
:10040000030480914901882309F0BFCF0000000058
:100410000F900F90DF91CF910895CF93DF9300D08D
:1004200000D0CDB7DEB70E945B119C0180915501D1
:1004300090915601A901481B590BCA01909358018C
:10044000809357018AC08091530190915401019685
:1004500090935401809353018091570190915801DA
:100460000197909358018093570180915301909187
:100470005401892B09F068C0809145019091460193
:100480009A83898380914701909148019093460116
:100490008093450189819A81909348018093470117
:1004A00053C08091450190914601FC018581968160
:1004B000FC01868197819C838B838B819C81FC01CD
:1004C00022813381809153019091540182179307C7
:1004D00008F443C0F8948B819C8102960E94D40456
:1004E0008B819C81FC0184899589892B29F08B81E2
:1004F0009C810C960E94D40478948B819C81FC0191
:10050000968980915201891730F48B819C81FC017E
:100510008689809352018B819C81AC014E5F5F4F35
:100520008B819C81FC018689282F30E0C901880FCE
:10053000991F880F991F880F991F820F931F885E3C
:100540009E4FBA010E94030480914501909146019B
:10055000FC018081882309F0A4CF809157019091FC
:100560005801892B09F06FCF80915301909154016C
:10057000909356018093550100000F900F900F90BB
:100580000F90DF91CF910895CF93DF9300D0CDB737
:10059000DEB70E94BF010E940D020AC08091520185
:1005A000882309F46FC080915201815080935201D9
:1005B00080915201282F30E0C901880F991F880FC0
:1005C000991F880F991F820F931F885E9E4FFC0111
:1005D0008081882319F380915201282F30E0C901CE
:1005E000880F991F880F991F880F991F820F931FDB
:1005F000885E9E4F9A83898389819A81FC018181DB
:100600009281FC012281338189819A81FC013283AC
:10061000218389819A81FC012181328189819A819A
:1006200003962817390769F489819A81FC01818131
:100630009281FC012281338189819A81FC0132837C
:10064000218389819A81FC0181819281FC018681CB
:1006500097819093170180931601809116019091D4
:100660001701FC01208131818091160190911701C1
:10067000FC0147898091160190911701642FF901BF
:10068000099501C000000F900F90DF91CF91089560
:10069000CF93DF930F92CDB7DEB7198213C0898154
:1006A000282F30E0C901880F991F880F991F880FE4
:1006B000991F820F931F885E9E4F0E94BB03898102
:1006C0008F5F89838981833050F383E391E00E94B7
:1006D000BB038CE391E00E94BB0389E491E00E949C
:1006E000BB0383E391E090934601809345018CE343
:1006F00091E0909348018093470100000F90DF91B3
:10070000CF910895CF93DF9300D000D00F92CDB753
:10071000DEB79D838C838C819D81FC0185819681D0
:10072000FC01868197819B838A838A819B810C96B9
:100730000E94D4048A819B810C96BC0189E491E0DB
:100740000E9403048A819B81FC0126898091160105
:1007500090911701FC018689281718F081E08983A0
:1007600001C0198289810F900F900F900F900F9008
:10077000DF91CF910895CF93DF9300D0CDB7DEB74F
:100780009A83898389819A819C012D5F3F4F89815A
:100790009A81FC013283218389819A812FEF3FEF77
:1007A000FC013483238389819A819C012D5F3F4F13
:1007B00089819A81FC013683258389819A819C01F4
:1007C0002D5F3F4F89819A81FC0130872783898182
:1007D0009A81FC01108200000F900F90DF91CF9161
:1007E0000895CF93DF9300D0CDB7DEB79A83898386
:1007F00089819A81FC011186108600000F900F906C
:10080000DF91CF910895CF93DF9300D000D000D037
:10081000CDB7DEB79C838B837E836D838B819C8178
:10082000FC01818192819A83898389819A81FC016B
:10083000228133818D819E81FC01338322838B81D0
:100840009C81FC01218132818D819E81FC01358357
:10085000248389819A81FC01828193812D813E814B
:10086000FC013583248389819A812D813E81FC019D
:10087000338322838B819C812D813E81FC013283D5
:1008800021838D819E812B813C81FC0131872087D2
:100890008B819C81FC01808121E0280F8B819C81D0
:1008A000FC012083000026960FB6F894DEBF0FBE31
:1008B000CDBFDF91CF910895CF93DF93CDB7DEB752
:1008C00028970FB6F894DEBF0FBECDBF9E838D83F1
:1008D00078876F838F819885FC01808191819C83CB
:1008E0008B838B819C81019641F48D819E81FC01DB
:1008F000878190859A8389831AC08D819E81039612
:100900009A83898307C089819A81FC0182819381BE
:100910009A83898389819A81FC0182819381FC0178
:10092000808191812B813C812817390760F789816B
:100930009A81FC01228133818F819885FC01338368
:1009400022838F819885FC01828193812F81388554
:10095000FC01358324838F81988529813A81FC01AC
:100960003583248389819A812F813885FC013383E3
:1009700022838F8198852D813E81FC0131872087DC
:100980008D819E81FC01808121E0280F8D819E81D7
:10099000FC012083000028960FB6F894DEBF0FBE3E
:1009A000CDBFDF91CF910895CF93DF9300D000D0DA
:1009B000CDB7DEB79C838B838B819C81FC018281C8
:1009C00093812B813C81F90124813581FC013583A0
:1009D00024838B819C81FC01848195812B813C81C6
:1009E000F90122813381FC01338322838B819C8135
:1009F000FC01808591859A83898389819A81FC0194
:100A0000818192812B813C812817390751F48B8198
:100A10009C81FC012481358189819A81FC0132838A
:100A200021838B819C81FC011186108689819A81AA
:100A3000FC0180812FEF280F89819A81FC0120839E
:100A400000000F900F900F900F90DF91CF910895BD
:100A5000CF93DF93CDB7DEB729970FB6F894DEBFFB
:100A60000FBECDBF8F83688749871A8219828F8115
:100A7000882309F49AC08FE190E00E94E01B9C83D8
:100A80008B838B819C81892B09F48FC08F81282FC8
:100A900030E08885882F90E0289FA001299F500D85
:100AA000389F500D1124CA0101969E838D838D813C
:100AB0009E810E94E01B9C018B819C81FC01318303
:100AC00020838B819C81FC0180819181892B09F499
:100AD00068C08B819C81FC01808191812F81422F94
:100AE00050E02885222F30E0429FB001439F700DD7
:100AF000529F700D11249B01280F391F8B819C81FF
:100B0000FC01338322838B819C81FC01128E8B81BB
:100B10009C81FC01208131818B819C81FC0135838A
:100B200024838B819C81FC01808191812F81222FE4
:100B300030E0A901415051092885222F30E0429F21
:100B4000B001439F700D529F700D11249B01280F1F
:100B5000391F8B819C81FC01378326838B819C818B
:100B60002F81FC01238F8B819C812885FC01248FA0
:100B70008B819C812FEFFC01258F8B819C812FEF36
:100B8000FC01268F8B819C8108960E94BB038B8180
:100B90009C8141960E94BB038B819C819A838983AF
:100BA00004C08B819C810E94251C89819A81299691
:100BB0000FB6F894DEBF0FBECDBFDF91CF91089581
:100BC000CF93DF9300D00F92CDB7DEB78B838FE149
:100BD00090E00E94E01B9A83898389819A81892B06
:100BE000F1F189819A81FC011382128289819A81B3
:100BF000FC011182108289819A81FC011582148284
:100C000089819A81FC011782168289819A81FC016F
:100C1000128E89819A8121E0FC01238F89819A813A
:100C2000FC01148E89819A812FEFFC01258F898127
:100C30009A812FEFFC01268F89819A8108960E9464
:100C4000BB0389819A8141960E94BB0389819A8165
:100C500020E040E050E060E070E00E9437068981CB
:100C60009A810F900F900F90DF91CF910895CF93BD
:100C7000DF93CDB7DEB72B970FB6F894DEBF0FBE6C
:100C8000CDBF9E838D8378876F835A8749872B8753
:100C900019820FB6F8940F928D819E81FC01228DEE
:100CA0008D819E81FC01838D2817D8F42F81388592
:100CB0008D819E814B85B9010E94B9088D819E81ED
:100CC000FC018189882349F08D819E8141960E9493
:100CD0002113813011F40E94AD180F900FBE81E0F6
:100CE00060C089859A85892B21F40F900FBE80E022
:100CF00058C08981882331F4CE0102960E948B135B
:100D000081E089830F900FBE0E94CB100FB6F8943C
:100D10000F928D819E81FC01858D8F3F21F48D8105
:100D20009E81FC01158E8D819E81FC01868D8F3FF9
:100D300021F48D819E81FC01168E0F900FBE9E01C5
:100D4000275F3F4FCE010296B9010E94A713882367
:100D500009F58D819E810E94640A8823A1F029856E
:100D60003A858D819E810896B9010E94DC128D81A1
:100D70009E810E94CA090E94D810882309F089CF59
:100D80000E94AD1886CF8D819E810E94CA090E9463
:100D9000D8107FCF8D819E810E94CA090E94D810F1
:100DA00080E02B960FB6F894DEBF0FBECDBFDF916B
:100DB000CF910895CF93DF93CDB7DEB729970FB6C4
:100DC000F894DEBF0FBECDBF9C838B837E836D8383
:100DD00058874F8329871A828B819C81FC01228D41
:100DE0008B819C81FC01838D281770F52D813E81BC
:100DF0008B819C814985B9010E94B9088B819C81B6
:100E0000FC01868D8F3F99F48B819C81FC01818947
:100E10008823B9F08B819C8141960E9421138823FD
:100E200081F08F81988521E0FC0120830AC08B81AD
:100E30009C81FC01868D8F5F282F8B819C81FC011A
:100E4000268F81E0898301C01982898129960FB696
:100E5000F894DEBF0FBECDBFDF91CF910895CF9341
:100E6000DF93CDB7DEB72D970FB6F894DEBF0FBE78
:100E7000CDBF98878F837A8769875C874B872D875B
:100E800019820FB6F8940F928F819885FC01828D9C
:100E9000882309F454C08F819885FC01868197814D
:100EA0009B838A8329853A858F819885B9010E9421
:100EB00078098D85882349F58F819885FC01828D7D
:100EC0002FEF280F8F819885FC01228F8F819885C5
:100ED000FC0180819181892B41F40E94C2159C0103
:100EE0008F819885FC01338322838F819885FC0153
:100EF0008085882301F18F81988508960E942113AF
:100F00008130C9F40E94AD1816C08F8198852A815E
:100F10003B81FC01378326838F819885FC01818981
:100F2000882349F08F81988541960E942113882358
:100F300011F00E94AD180F900FBE81E073C08B8539
:100F40009C85892B21F40F900FBE80E06BC08981B6
:100F5000882331F4CE0104960E948B1381E08983AB
:100F60000F900FBE0E94CB100FB6F8940F928F8196
:100F70009885FC01858D8F3F21F48F819885FC0138
:100F8000158E8F819885FC01868D8F3F21F48F818E
:100F90009885FC01168E0F900FBE9E01255F3F4F76
:100FA000CE010496B9010E94A7138823A1F58F8171
:100FB00098850E942F0A882339F18F819885FC013A
:100FC00080819181892B61F40FB6F8940F928F8103
:100FD0009885FC01828193810E94D4150F900FBEE9
:100FE0002B853C858F8198854196B9010E94DC1242
:100FF0008F8198850E94CA090E94D810882309F021
:1010000040CF0E94AD183DCF8F8198850E94CA09BC
:101010000E94D81036CF8F8198850E94CA090E94FD
:10102000D81080E02D960FB6F894DEBF0FBECDBF6E
:10103000DF91CF910895CF93DF93CDB7DEB7289797
:101040000FB6F894DEBF0FBECDBF9C838B837E832B
:101050006D8358874F831A828B819C81FC01828D1E
:101060008823B9F12D813E818B819C81B9010E9439
:1010700078098B819C81FC01828D2FEF280F8B8159
:101080009C81FC01228F8B819C81FC01858D8F3F8F
:1010900099F48B819C81FC0180858823B9F08B8138
:1010A0009C8108960E942113882381F08F81988566
:1010B00021E0FC0120830AC08B819C81FC01858D8D
:1010C0008F5F282F8B819C81FC01258F81E0898394
:1010D00001C01982898128960FB6F894DEBF0FBE31
:1010E000CDBFDF91CF910895CF93DF9300D00F92C2
:1010F000CDB7DEB79B838A830FB6F8940F928A81AF
:101100009B81FC01828D89830F900FBE89810F9096
:101110000F900F90DF91CF910895CF93DF9300D080
:101120000F92CDB7DEB79B838A838A819B81FC01B6
:10113000828D898389810F900F900F90DF91CF91DD
:101140000895CF93DF9300D0CDB7DEB79A8389831C
:1011500089819A81FC01808191810E94251C89816D
:101160009A810E94251C00000F900F90DF91CF9173
:101170000895CF93DF9300D000D00F92CDB7DEB7A4
:101180009A8389837C836B834D8389819A81FC0157
:10119000848D8823A9F489819A81FC0180819181C1
:1011A000892B09F092C089819A81FC018281938107
:1011B0000E94601689819A81FC011382128285C087
:1011C0008D818823D9F589819A81FC01848D482FEE
:1011D00050E089819A81FC01848195812B813C8139
:1011E000B9010E94711C89819A81FC012481358199
:1011F00089819A81FC01848D882F90E0280F391F06
:1012000089819A81FC013583248389819A81FC013B
:101210002481358189819A81FC01828193812817FB
:10122000390708F452C089819A81FC0120813181FB
:1012300089819A81FC013583248347C089819A8101
:10124000FC01848D482F50E089819A81FC018681C0
:1012500097812B813C81B9010E94711C89819A81FF
:10126000FC012681378189819A81FC01848D882F38
:1012700090E0919581959109280F391F89819A8174
:10128000FC013783268389819A81FC01268137817D
:1012900089819A81FC018081918128173907A8F4FE
:1012A00089819A81FC012281338189819A81FC01A3
:1012B000848D882F90E0919581959109280F391F91
:1012C00089819A81FC013783268389819A81FC0177
:1012D000828D21E0280F89819A81FC01228F0000F4
:1012E0000F900F900F900F900F90DF91CF91089576
:1012F000CF93DF9300D000D0CDB7DEB79A83898338
:101300007C836B8389819A81FC0180819181892B07
:10131000C9F189819A81FC012681378189819A816D
:10132000FC01848D882F90E0280F391F89819A81D4
:10133000FC013783268389819A81FC0126813781CC
:1013400089819A81FC01828193812817390750F0A5
:1013500089819A81FC012081318189819A81FC01F6
:101360003783268389819A81FC01848D482F50E040
:1013700089819A81FC01268137818B819C81B90109
:101380000E94711C00000F900F900F900F90DF9142
:10139000CF910895CF93DF9300D0CDB7DEB79A8376
:1013A00089830FB6F8940F9219C089819A81FC0144
:1013B00081898823D1F089819A8141960E942113E5
:1013C000882311F00E94141489819A81FC01868D72
:1013D0008150282F89819A81FC01268F89819A81E9
:1013E000FC01868D18160CF301C0000089819A81DA
:1013F0002FEFFC01268F0F900FBE0FB6F8940F92BF
:1014000019C089819A81FC0180858823D1F0898166
:101410009A8108960E942113882311F00E941414C7
:1014200089819A81FC01858D8150282F89819A813B
:10143000FC01258F89819A81FC01858D18160CF39A
:1014400001C0000089819A812FEFFC01258F0F9048
:101450000FBE00000F900F90DF91CF910895CF93B2
:10146000DF9300D00F92CDB7DEB79B838A830FB690
:10147000F8940F928A819B81FC01928D81E09923DF
:1014800009F080E089830F900FBE89810F900F9043
:101490000F90DF91CF910895CF93DF9300D00F92FB
:1014A000CDB7DEB79B838A838A819B81FC01928DB5
:1014B00081E0992309F080E0898389810F900F9062
:1014C0000F90DF91CF910895CF93DF9300D00F92CB
:1014D000CDB7DEB79B838A830FB6F8940F928A81CB
:1014E0009B81FC01228D8A819B81FC01938D81E08F
:1014F000291709F080E089830F900FBE89810F9032
:101500000F900F90DF91CF910895CF93DF9300D08C
:101510000F92CDB7DEB79B838A838A819B81FC01C2
:10152000228D8A819B81FC01938D81E0291709F02E
:1015300080E0898389810F900F900F90DF91CF9188
:101540000895CF93DF9300D000D000D00F92CDB795
:10155000DEB79B838A837D836C835F834E83F8949D
:101560008A819B810E94640A8823A1F08E819F81D9
:10157000892B69F08A819B819C01285F3F4F8E8176
:101580009F81B9010E945A0178948CEF2DC0789404
:1015900080E02AC078940000F8948A819B81FC0145
:1015A000228D8A819B81FC01838D2817D0F42C81A8
:1015B0003D818A819B8140E0B9010E94B90881E0A8
:1015C00089838A819B81FC018189882359F08A81E2
:1015D0009B8141960E948203882321F08BEF8983AF
:1015E00001C019827894898127960FB6F894DEBFDE
:1015F0000FBECDBFDF91CF910895CF93DF9300D081
:1016000000D000D00F92CDB7DEB79B838A837D8355
:101610006C835F834E83F8948A819B81FC01828D69
:101620008823A1F48E819F81892B69F08A819B8117
:101630009C012F5E3F4F8E819F81B9010E945A010C
:1016400078948CEF65C0789480E062C07894000054
:10165000F8948A819B81FC01828D882309F455C00E
:101660008A819B81FC01268137818A819B81FC01D3
:10167000848D882F90E0280F391F8A819B81FC017F
:10168000378326838A819B81FC01268137818A8169
:101690009B81FC01828193812817390750F08A8150
:1016A0009B81FC01208131818A819B81FC013783F0
:1016B00026838A819B81FC01828D2FEF280F8A81EE
:1016C0009B81FC01228F8A819B81FC01848D482FA4
:1016D00050E08A819B81FC01268137818C819D812C
:1016E000B9010E94711C81E089838A819B81FC0180
:1016F0008085882359F08A819B8108960E94820305
:10170000882321F08BEF898301C019827894898125
:1017100027960FB6F894DEBF0FBECDBFDF91CF91F5
:101720000895CF93DF9300D000D00F92CDB7DEB7EE
:101730009A8389837C836B834D8389819A81FC01A1
:10174000228D89819A81FC01838D2817D0F42B8109
:101750003C8189819A8140E0B9010E94B9088D815C
:10176000882379F489819A81FC018189882349F051
:1017700089819A8141960E948203882311F081E039
:1017800001C08D810F900F900F900F900F90DF91FF
:10179000CF910895CF93DF9300D000D000D00F9267
:1017A000CDB7DEB79B838A837D836C835F834E8353
:1017B0008A819B81FC01828D882309F45EC08A8125
:1017C0009B81FC01268137818A819B81FC01848D6C
:1017D000882F90E0280F391F8A819B81FC01378375
:1017E00026838A819B81FC01268137818A819B81A6
:1017F000FC01828193812817390750F08A819B81EF
:10180000FC01208131818A819B81FC013783268301
:101810008A819B81FC01828D2FEF280F8A819B8119
:10182000FC01228F8A819B81FC01848D482F50E02E
:101830008A819B81FC01268137818C819D81B90140
:101840000E94711C8E819F81FC018081882391F40C
:101850008A819B81FC018085882361F08A819B813C
:1018600008960E948203882329F08E819F8121E0BF
:10187000FC01208381E0898301C019828981279638
:101880000FB6F894DEBF0FBECDBFDF91CF910895A4
:10189000AF92BF92CF92DF92EF92FF920F931F937E
:1018A000CF93DF93CDB7DEB764970FB6F894DEBF62
:1018B0000FBECDBF9F838E83798768875B874A87FA
:1018C0003D872C870E87F88AEF86DA8AC98ABC8A18
:1018D000AB8A29893A898A859B85B9010E9460155E
:1018E0009B838A838A819B81892B09F49FC08A818B
:1018F0009B81FC012789308D8A859B850197820F0A
:10190000931F9D838C834A855B852B893C896885E1
:1019100079858A819B818A014E850E9431144C858C
:101920005D852E813F818C819D81B9010E94C71602
:101930009C018A819B81FC01318320838F8598895A
:10194000892B39F08F8598892A813B81FC0131836D
:1019500020830FB6F8940F928091B1018F5F80932E
:10196000B1018091590190915A01892B69F48A81C2
:101970009B8190935A01809359018091B1018130EC
:10198000B1F40E94931413C08091B601882379F4B6
:101990008091590190915A01FC0186899E85981782
:1019A00030F08A819B8190935A01809359018A81FA
:1019B0009B81FC0196898091B401891730F48A815A
:1019C0009B81FC0186898093B4018091BB018F5F6C
:1019D0008093BB018A819B81FC0196898091B5012E
:1019E000891730F48A819B81FC0186898093B50137
:1019F0008A819B81AC014E5F5F4F8A819B81FC0194
:101A00008689282F30E0C901880F991F880F991FF8
:101A1000880F991F820F931F855A9E4FBA010E940B
:101A2000030481E089830F900FBE02C08FEF89838A
:101A30008981813079F48091B601882359F08091B1
:101A4000590190915A01FC0186899E85891710F4ED
:101A50000E94AD18898164960FB6F894DEBF0FBE60
:101A6000CDBFDF91CF911F910F91FF90EF90DF904D
:101A7000CF90BF90AF900895CF93DF9300D000D068
:101A8000CDB7DEB79C838B830FB6F8940F9280910D
:101A9000590190915A012B813C812817390711F483
:101AA0001C821B828B819C81892B29F48091590196
:101AB00090915A0102C08B819C819A83898389818C
:101AC0009A8102960E94D40489819A81FC018489BA
:101AD0009589892B29F089819A810C960E94D404DA
:101AE00089819A810296BC018EE991E00E940304EB
:101AF0008091A7018F5F8093A7018091BB018F5FC9
:101B00008093BB010F900FBE8091B601882331F006
:101B10008B819C81892B11F40E94AD1800000F90DD
:101B20000F900F900F90DF91CF910895CF93DF9397
:101B3000CDB7DEB728970FB6F894DEBF0FBECDBF86
:101B40009E838D8378876F8319820E94CB108D814D
:101B50009E81FC01808191812F813885820F931FA6
:101B60009B838A838D819E81FC01208131818091BC
:101B7000B2019091B30182179307B0F48D819E81D9
:101B8000FC01808191812A813B812817390708F562
:101B90008091B2019091B3012A813B818217930712
:101BA000C0F481E0898315C08D819E81FC01808114
:101BB00091812A813B812817390748F08091B20131
:101BC0009091B3012A813B818217930710F481E041
:101BD00089838D819E812A813B81FC013183208311
:101BE0008981882359F08091590190915A01029678
:101BF0000E94D4048A819B810E9415150E94D810EE
:101C00008C838C81882311F40E94AD1800002896E3
:101C10000FB6F894DEBF0FBECDBFDF91CF91089510
:101C2000CF93DF9300D000D00F92CDB7DEB79D8366
:101C30008C8319828C819D81892BD1F00E94CB10DD
:101C40008091B2019091B3012C813D81820F931F4D
:101C50009B838A838091590190915A0102960E9438
:101C6000D4048A819B810E9415150E94D810898313
:101C70008981882311F40E94AD1800000F900F9005
:101C80000F900F900F90DF91CF910895CF93DF9336
:101C900000D000D00F92CDB7DEB79D838C830FB6F6
:101CA000F8940F928C819D81892B29F480915901A0
:101CB00090915A0102C08C819D819A838983898188
:101CC0009A81FC0186898B830F900FBE8B810F90C8
:101CD0000F900F900F900F90DF91CF910895CF93B9
:101CE000DF9300D000D000D00F92CDB7DEB79E8337
:101CF0008D836F8319828F81843010F083E08F830E
:101D00000FB6F8940F928091590190915A012D814C
:101D10003E812817390711F41E821D828D819E8114
:101D2000892B29F48091590190915A0102C08D812B
:101D30009E819B838A838A819B81FC0181A18C8304
:101D40009C818F81981709F478C09F818C818917B5
:101D500038F48D819E81892B49F081E0898306C00A
:101D60008D819E81892B11F481E089838A819B81F9
:101D7000FC0121A18A819B81FC018689281729F415
:101D80008A819B812F81FC01268B8A819B812F81F7
:101D9000FC0121A38F81882F90E024E030E0281BF4
:101DA000390B8A819B81FC01358724878A819B813D
:101DB000FC01428553858C81282F30E0C901880FB2
:101DC000991F880F991F880F991F820F931F855A9B
:101DD0009E4F4817590761F58A819B8102960E94A0
:101DE000D4048A819B81FC0196898091B501891771
:101DF00030F48A819B81FC0186898093B5018A81B8
:101E00009B81AC014E5F5F4F8A819B81FC0186897B
:101E1000282F30E0C901880F991F880F991F880F5C
:101E2000991F820F931F855A9E4FBA010E94030487
:101E30008981813011F40E94AD180F900FBE00000F
:101E400027960FB6F894DEBF0FBECDBFDF91CF91BE
:101E50000895CF93DF9300D000D0CDB7DEB79C8339
:101E60008B830FB6F8940F928091590190915A018B
:101E70002B813C812817390711F41C821B828B812E
:101E80009C81892B29F48091590190915A0102C0BB
:101E90008B819C819A83898389819A8102960E9491
:101EA000D40489819A81FC0184899589892B29F040
:101EB00089819A810C960E94D40489819A81029624
:101EC000BC0188EA91E00E9403040F900FBE8B8151
:101ED0009C81892BA1F48091B601882319F00E947E
:101EE000AD180DC09091A8018091B101981729F407
:101EF00010925A011092590102C00E946F12000004
:101F00000F900F900F900F90DF91CF910895CF9386
:101F1000DF9300D000D00F92CDB7DEB79D838C83C6
:101F200019828C819D819B838A838A819B81FC019C
:101F300082859385885A914089F48A819B81FC012E
:101F4000848995898559914049F08A819B81FC015A
:101F500084899589892B11F481E0898389810F9087
:101F60000F900F900F900F90DF91CF910895CF9326
:101F7000DF9300D000D0CDB7DEB79C838B838B81FD
:101F80009C819A83898389819A81892B09F44FC026
:101F90008091590190915A0129813A812817390776
:101FA00009F445C00FB6F8940F9289819A810E9476
:101FB000870F8130D1F589819A8102960E94D404DD
:101FC00089819A81FC0196898091B501891730F445
:101FD00089819A81FC0186898093B50189819A81E2
:101FE000AC014E5F5F4F89819A81FC018689282F61
:101FF00030E0C901880F991F880F991F880F991F1A
:10200000820F931F855A9E4FBA010E940304898153
:102010009A81FC0126898091590190915A01FC0115
:102020008689281710F00E94AD180F900FBE00008F
:102030000F900F900F900F90DF91CF910895CF9355
:10204000DF9300D000D000D0CDB7DEB79E838D8364
:1020500019828D819E819B838A831C828A819B81C8
:102060000E94870F813009F048C08091B701882312
:10207000E1F58A819B81FC0126898091590190912B
:102080005A01FC01968981E0291708F480E08983D0
:102090008A819B8102960E94D4048A819B81FC01E3
:1020A00096898091B501891730F48A819B81FC0162
:1020B00086898093B5018A819B81AC014E5F5F4F19
:1020C0008A819B81FC018689282F30E0C901880F15
:1020D000991F880F991F880F991F820F931F855A88
:1020E0009E4FBA010E94030408C08A819B810C960E
:1020F000BC0185E991E00E940304898126960FB610
:10210000F894DEBF0FBECDBFDF91CF910895AF929F
:10211000BF92CF92DF92EF92FF920F93CF93DF9314
:102120000F92CDB7DEB7A12CB12CC12CD12CE12C54
:10213000F12C00E020E030E045E550E060E171E0A6
:102140008FE194E10E94480C89838981813051F4A8
:10215000F89481E08093B6011092B3011092B2011D
:102160000E94701800000F90DF91CF910F91FF90A7
:10217000EF90DF90CF90BF90AF900895CF93DF9313
:10218000CDB7DEB7F8941092B6010E94A5180000F2
:10219000DF91CF910895CF93DF93CDB7DEB78091D4
:1021A000B7018F5F8093B7010000DF91CF91089551
:1021B0000F931F93CF93DF9300D0CDB7DEB7198273
:1021C0000FB6F8940F928091B70181508093B701B8
:1021D0008091B701882309F064C08091B101882300
:1021E00009F45FC01A823AC080919A0190919B01D4
:1021F000FC0106811781C8010C960E94D404C80115
:1022000002960E94D404F80196898091B50189173D
:1022100020F4F80186898093B501A8014E5F5F4FD5
:10222000F8018689282F30E0C901880F991F880F8F
:10223000991F880F991F820F931F855A9E4FBA01CD
:102240000E940304F80126898091590190915A0156
:10225000FC018689281710F081E08A83809195011E
:10226000882311F68091B801882371F007C00E947D
:1022700090118091B80181508093B8018091B8018C
:102280008823A9F781E08A838A81813021F08091B7
:10229000B901813031F481E089831092B9010E9443
:1022A000AD180F900FBE89810F900F90DF91CF91E5
:1022B0001F910F910895CF93DF9300D0CDB7DEB774
:1022C0000FB6F8940F928091B2019091B3019A8366
:1022D00089830F900FBE89819A810F900F90DF91B3
:1022E000CF910895CF93DF9300D00F92CDB7DEB793
:1022F00019828091B2019091B3019B838A838A8174
:102300009B810F900F900F90DF91CF910895CF9305
:10231000DF93CDB7DEB78091B101DF91CF91089502
:10232000CF93DF9300D000D000D0CDB7DEB780913F
:10233000B701882309F0C3C08091B2019091B30125
:1023400001969093B3018093B2018091B201909174
:10235000B301892BE9F580919101909192019A83C3
:10236000898380919301909194019093920180933D
:10237000910189819A819093940180939301809136
:10238000BA018F5F8093BA0180919101909192017F
:10239000FC018081882339F48FEF9FEF9093010136
:1023A0008093000115C08091910190919201FC01F0
:1023B00085819681FC01868197819C838B838B81AB
:1023C0009C81FC01828193819093010180930001A3
:1023D0002091B2013091B3018091000190910101EF
:1023E0002817390708F471C08091910190919201EA
:1023F000FC018081882339F48FEF9FEF90930101D6
:102400008093000162C08091910190919201FC0142
:1024100085819681FC01868197819C838B838B814A
:102420009C81FC01828193819E838D838091B20186
:102430009091B3012D813E818217930738F48D81ED
:102440009E8190930101809300013FC08B819C810C
:1024500002960E94D4048B819C81FC018489958919
:10246000892B29F08B819C810C960E94D4048B814E
:102470009C81FC0196898091B501891730F48B818C
:102480009C81FC0186898093B5018B819C81AC0184
:102490004E5F5F4F8B819C81FC018689282F30E045
:1024A000C901880F991F880F991F880F991F820FE4
:1024B000931F855A9E4FBA010E94030495CF8091C5
:1024C000B8018F5F8093B80100C0000026960FB658
:1024D000F894DEBF0FBECDBFDF91CF910895CF93AB
:1024E000DF9300D0CDB7DEB78091B701882349F0E4
:1024F00081E08093B9015AC08091B50181508093E9
:10250000B5018091B501282F30E0C901880F991FCE
:10251000880F991F880F991F820F931F855A9E4F0E
:10252000FC018081882341F38091B501282F30E0A0
:10253000C901880F991F880F991F880F991F820F53
:10254000931F855A9E4F9A83898389819A81FC01C2
:1025500081819281FC012281338189819A81FC01F0
:102560003283218389819A81FC0121813281898191
:102570009A8103962817390769F489819A81FC01A9
:1025800081819281FC012281338189819A81FC01C0
:102590003283218389819A81FC0181819281FC01AE
:1025A0008681978190935A018093590100000F9082
:1025B0000F90DF91CF910895CF93DF9300D000D09B
:1025C00000D0CDB7DEB79C838B837E836D838091F3
:1025D000590190915A019C01245F3F4F8B819C814E
:1025E000B9010E945C048091590190915A010296B0
:1025F0000E94D4048D819E81019659F480915901E5
:1026000090915A010296BC0188EA91E00E9403046D
:102610000EC08091B2019091B3012D813E81820F55
:10262000931F9A83898389819A810E9415150000DE
:1026300026960FB6F894DEBF0FBECDBFDF91CF91C7
:102640000895CF93DF9300D000D00F92CDB7DEB7BF
:102650009D838C838C819D81FC0185819681FC0109
:10266000868197819B838A838A819B810C960E94B5
:10267000D4048091B701882369F58A819B810296F1
:102680000E94D4048A819B81FC0196898091B501C6
:10269000891730F48A819B81FC0186898093B5017A
:1026A0008A819B81AC014E5F5F4F8A819B81FC01D7
:1026B0008689282F30E0C901880F991F880F991F3C
:1026C000880F991F820F931F855A9E4FBA010E944F
:1026D000030408C08A819B810C96BC0185E991E0C6
:1026E0000E9403048A819B81FC0126898091590103
:1026F00090915A01FC018689281718F081E089839E
:1027000001C0198289810F900F900F900F900F9048
:10271000DF91CF910895CF93DF9300D0CDB7DEB78F
:102720009A8389832091BA0189819A81FC0120834F
:102730002091B2013091B30189819A81FC013283E9
:10274000218300000F900F90DF91CF910895CF93D8
:10275000DF9300D000D00F92CDB7DEB79B838A8382
:102760007D836C830FB6F8940F928C819D81FC0160
:1027700080819181019611F419824BC08A819B81DD
:10278000FC0190818091BA01981779F08A819B8130
:10279000FC01218132818091B2019091B3018217B5
:1027A000930718F081E0898334C02091B201309101
:1027B000B3018A819B81FC0181819281281B390BA5
:1027C0008C819D81FC018081918128173907F8F463
:1027D0002091B2013091B3018A819B81FC018181FA
:1027E0009281A901481B590BCA012C813D81F90135
:1027F00020813181281B390B8C819D81FC01318323
:1028000020838A819B810E948B13198202C081E000
:1028100089830F900FBE89810F900F900F900F90BA
:102820000F90DF91CF910895CF93DF93CDB7DEB7AF
:1028300081E08093B9010000DF91CF910895CF939B
:10284000DF9300D0CDB7DEB79A8389830E94D51479
:1028500080915B01823010F00E94AD180E949600BA
:10286000F5CF0F931F93CF93DF93CDB7DEB72997A3
:102870000FB6F894DEBF0FBECDBF9A8389837C83E9
:102880006B834D833F832E831987088789819A81C3
:1028900049962B813C8148E050E0B9010E94811C9F
:1028A00089819A81FC0110A28D81843010F083E02F
:1028B0008D8389819A812D81FC01268B89819A8162
:1028C0002D81FC0121A389819A8102960E94F10346
:1028D00089819A810C960E94F10389819A812981CC
:1028E0003A81FC01318720878D81882F90E024E098
:1028F00030E0281B390B89819A81FC0135872487B8
:1029000089819A8129813A81FC01338B228B0000D5
:1029100029960FB6F894DEBF0FBECDBFDF91CF91E1
:102920001F910F910895CF93DF930F92CDB7DEB72C
:10293000198213C08981282F30E0C901880F991F9F
:10294000880F991F880F991F820F931F855A9E4FDA
:102950000E94BB0389818F5F89838981843050F312
:102960008FE791E00E94BB0388E891E00E94BB03DF
:1029700085E991E00E94BB038EE991E00E94BB03D0
:1029800088EA91E00E94BB038FE791E09093920167
:102990008093910188E891E0909394018093930152
:1029A00000000F90DF91CF910895CF93DF9300D077
:1029B0000F92CDB7DEB78091A701882379F10E94ED
:1029C000CB1090919E0181E0992309F080E08983EA
:1029D0000E94D8108981882309F50FB6F8940F92C8
:1029E0008091A3019091A401FC01868197819B8332
:1029F0008A838A819B8102960E94D4048091B101CE
:102A000081508093B1018091A70181508093A701EB
:102A10000F900FBE8A819B810E94AA1500000F9023
:102A20000F900F90DF91CF910895CF93DF9300D057
:102A3000CDB7DEB79A8389838091590190915A016D
:102A400029813A81FC01338322838091B2019091E4
:102A5000B30129813A812817390778F48091590107
:102A600090915A019C012E5F3F4F8091930190916C
:102A70009401B9010E945C041DC08091590190919C
:102A80005A019C012E5F3F4F8091910190919201DC
:102A9000B9010E945C04809100019091010129819B
:102AA0003A812817390730F489819A81909301017E
:102AB0008093000100000F900F90DF91CF91089557
:102AC000CF93DF9300D000D000D0CDB7DEB79C838A
:102AD0008B837E836D8382E290E00E94E01B9A8369
:102AE000898389819A81892B51F18D819E81892BDE
:102AF00029F48B819C810E94E01B02C08D819E8104
:102B000029813A81F901908F878B89819A81FC0113
:102B10008789908D892B39F489819A810E94251C9F
:102B20001A8219820CC089819A81FC018789908D53
:102B30002B813C81A90165EA70E00E947A1C8981A1
:102B40009A8126960FB6F894DEBF0FBECDBFDF91F7
:102B5000CF910895CF93DF9300D0CDB7DEB79A839E
:102B6000898389819A81FC018789908D0E94251C27
:102B700089819A810E94251C00000F900F90DF919F
:102B8000CF910895CF93DF9300D0CDB7DEB780917A
:102B9000590190915A019A83898389819A810F9072
:102BA0000F90DF91CF910895CF93DF9300D000D0A5
:102BB000CDB7DEB79C838B838B819C819A8389837D
:102BC00089819A81FC0126898091590190915A014D
:102BD000FC018689281708F06BC0809159019091FB
:102BE0005A01FC018689882F90E024E030E0281B00
:102BF000390B89819A81FC013587248789819A81E3
:102C0000FC014285538589819A81FC018689282FA0
:102C100030E0C901880F991F880F991F880F991FED
:102C2000820F931F855A9E4F48175907B9F589811E
:102C30009A8102960E94D4048091590190915A0180
:102C4000FC01268989819A81FC01268B89819A81E0
:102C5000FC0196898091B501891730F489819A81A8
:102C6000FC0186898093B50189819A81AC014E5F10
:102C70005F4F89819A81FC018689282F30E0C90144
:102C8000880F991F880F991F880F991F820F931F14
:102C9000855A9E4FBA010E9403040AC080915901CF
:102CA00090915A01FC01268989819A81FC01268B29
:102CB00000000F900F900F900F90DF91CF9108952B
:102CC000CF93DF9300D000D0CDB7DEB79C838B834A
:102CD0008B819C819A8389838B819C81892B09F4C8
:102CE0004EC089819A81FC01268989819A81FC01E3
:102CF00081A1281709F443C089819A8102960E9414
:102D0000D40489819A81FC0121A189819A81FC01E5
:102D1000268B89819A81FC018689882F90E024E0A6
:102D200030E0281B390B89819A81FC013587248783
:102D300089819A81FC0196898091B501891730F4C7
:102D400089819A81FC0186898093B50189819A8164
:102D5000AC014E5F5F4F89819A81FC018689282FE3
:102D600030E0C901880F991F880F991F880F991F9C
:102D7000820F931F855A9E4FBA010E9403040000E0
:102D80000F900F900F900F90DF91CF910895CF93F8
:102D9000DF93CDB7DEB728970FB6F894DEBF0FBE2E
:102DA000CDBF9C838B837E836D8358874F838B81BC
:102DB0009C8121E1FC0120838B819C8101979C8374
:102DC0008B838B819C8122E2FC0120838B819C81FF
:102DD00001979C838B838B819C8123E3FC0120835F
:102DE0008B819C8101979C838B838D819E819A83AB
:102DF000898329818B819C81FC0120838B819C812B
:102E000001979C838B8389819A81892F99279A8343
:102E1000898329818B819C81FC0120838B819C810A
:102E200001979C838B838B819C81FC0110828B8119
:102E30009C8101979C838B838B819C8120E8FC0182
:102E400020838B819C8101979C838B838B819C81C8
:102E5000FC0110828B819C8101979C838B838B81E9
:102E60009C8122E0FC0120838B819C8101979C83C3
:102E70008B838B819C8123E0FC0120838B819C814F
:102E800001979C838B838B819C8124E0FC012083B0
:102E90008B819C8101979C838B838B819C8125E016
:102EA000FC0120838B819C8101979C838B838B8188
:102EB0009C8126E0FC0120838B819C8101979C836F
:102EC0008B838B819C8127E0FC0120838B819C81FB
:102ED00001979C838B838B819C8128E0FC0120835C
:102EE0008B819C8101979C838B838B819C8129E0C2
:102EF000FC0120838B819C8101979C838B838B8138
:102F00009C8120E1FC0120838B819C8101979C8323
:102F10008B838B819C8121E1FC0120838B819C81AF
:102F200001979C838B838B819C8122E1FC01208310
:102F30008B819C8101979C838B838B819C8123E176
:102F4000FC0120838B819C8101979C838B838B81E7
:102F50009C8124E1FC0120838B819C8101979C83CF
:102F60008B838B819C8125E1FC0120838B819C815B
:102F700001979C838B838B819C8126E1FC012083BC
:102F80008B819C8101979C838B838B819C8127E122
:102F9000FC0120838B819C8101979C838B838B8197
:102FA0009C8128E1FC0120838B819C8101979C837B
:102FB0008B838B819C8129E1FC0120838B819C8107
:102FC00001979C838B838B819C8120E2FC01208371
:102FD0008B819C8101979C838B838B819C8121E2D7
:102FE000FC0120838B819C8101979C838B838B8147
:102FF0009C8122E2FC0120838B819C8101979C8330
:103000008B838B819C8123E2FC0120838B819C81BB
:1030100001979C838B838F8198859A8389832981EB
:103020008B819C81FC0120838B819C8101979C83F7
:103030008B8389819A81892F99279A838983298112
:103040008B819C81FC0120838B819C8101979C83D7
:103050008B838B819C8126E2FC0120838B819C8168
:1030600001979C838B838B819C8127E2FC012083C9
:103070008B819C8101979C838B838B819C8128E22F
:10308000FC0120838B819C8101979C838B838B81A6
:103090009C8129E2FC0120838B819C8101979C8388
:1030A0008B838B819C8120E3FC0120838B819C811D
:1030B00001979C838B838B819C8121E3FC0120837E
:1030C0008B819C8101979C838B838B819C8128962B
:1030D0000FB6F894DEBF0FBECDBFDF91CF9108953C
:1030E000CF93DF93CDB7DEB70E946319A09159014A
:1030F000B0915A01CD91CDBFDD91DEBFFF91EF912F
:10310000DF91CF91BF91AF919F918F917F916F91FF
:103110005F914F913F912F911F910F91FF90EF90F1
:10312000DF90CF90BF90AF909F908F907F906F90E7
:103130005F904F903F902F901F900F900FBE0F9079
:10314000089581E0DF91CF910895CF93DF93CDB7BC
:10315000DEB70000DF91CF9108950F920FB6F8947B
:103160000F921F9211242F923F924F925F926F9273
:103170007F928F929F92AF92BF92CF92DF92EF9207
:10318000FF920F931F932F933F934F935F936F93F0
:103190007F938F939F93AF93BF93CF93DF93EF93DF
:1031A000FF93A0915901B0915A010DB60D920EB640
:1031B0000D920E946F12A0915901B0915A01CD91C8
:1031C000CDBFDD91DEBFFF91EF91DF91CF91BF9138
:1031D000AF919F918F917F916F915F914F913F91AF
:1031E0002F911F910F91FF90EF90DF90CF90BF90A4
:1031F000AF909F908F907F906F905F904F903F9097
:103200002F901F900F900FBE0F90089500000F9207
:103210000FB6F8940F921F9211242F923F924F9263
:103220005F926F927F928F929F92AF92BF92CF9256
:10323000DF92EF92FF920F931F932F933F934F9341
:103240005F936F937F938F939F93AF93BF93CF932E
:10325000DF93EF93FF93A0915901B0915A010DB6FE
:103260000D920EB60D920E9490110E946F12A091C5
:103270005901B0915A01CD91CDBFDD91DEBFFF91D3
:10328000EF91DF91CF91BF91AF919F918F917F91FE
:103290006F915F914F913F912F911F910F91FF90EF
:1032A000EF90DF90CF90BF90AF909F908F907F90E6
:1032B0006F905F904F903F902F901F900F900FBE98
:1032C0000F9008950000CF93DF9300D000D00F92AD
:1032D000CDB7DEB780EA9FE0A0E0B0E089839A83B3
:1032E000AB83BC8389819A81AB81BC81689415F8DA
:1032F000B695A795979587951694D1F789839A8364
:10330000AB83BC8389819A81AB81BC810197A10980
:10331000B10989839A83AB83BC8388E890E02981D3
:103320003A81FC013183208380E890E0FC01208118
:1033300080E890E02C7FFC0120838BE08D8381E886
:1033400090E02D81FC0120838FE690E0FC018081DC
:103350008D838D8182608D838FE690E02D81FC01CD
:10336000208300000F900F900F900F900F90DF912F
:10337000CF9108950E940719189500000F931F938D
:10338000CF93DF93CDB7DEB72E970FB6F894DEBF9D
:103390000FBECDBF6E837F83888799874A870FB61C
:1033A000F8940F9240E061E08A850E94280590938E
:1033B000BD018093BC0140E061E08A850E94280540
:1033C0009093BF018093BE018E819F81A885B985AE
:1033D000880F991FAA1FBB1F880F991FAA1FBB1F09
:1033E000880F991FAA1FBB1F880F991FAA1FBB1FF9
:1033F0008C019D0180E092E1AAE7B0E08B879C8779
:10340000AD87BE876B857C858D859E85A9019801DA
:103410000E944F1CDA01C9010197A109B1098983F2
:103420009A83AB83BC8389818D8384EC90E02D816A
:10343000DC012C9389819A81AB81BC81892F9A2FE1
:10344000AB2FBB2789839A83AB83BC8389818D8310
:1034500085EC90E02D81FC01208381EC90E028E94F
:10346000DC012C9382EC90E026E8FC0120830F9095
:103470000FBE80E090E02E960FB6F894DEBF0FBE30
:10348000CDBFDF91CF911F910F9108950F931F939F
:10349000CF93DF93CDB7DEB729970FB6F894DEBF91
:1034A0000FBECDBF69837A838B839C834D830FB618
:1034B000F8940F9240E061E08D810E94280590937E
:1034C000BD018093BC0140E061E08D810E94280530
:1034D0009093BF018093BE0189819A81AB81BC81A9
:1034E00080589B47A14EBF4F9C01AD01220F331F57
:1034F000441F551F220F331F441F551F2E833F8328
:103500004887598789819A81AB81BC81880F991F2F
:10351000AA1FBB1F880F991FAA1FBB1F880F991FC7
:10352000AA1FBB1F8C019D016E817F8188859985B3
:10353000A90198010E944F1CDA01C9019C0184EC89
:1035400090E021503109FC013183208380EC90E030
:1035500022E0FC01208381EC90E028E9FC0120833B
:1035600082EC90E026E8FC0120830F900FBE80E003
:1035700090E029960FB6F894DEBF0FBECDBFDF9165
:10358000CF911F910F910895CF93DF9300D000D07A
:1035900000D0CDB7DEB79A8389837C836B835E834B
:1035A0004D838091BC019091BD014D815E816B8105
:1035B0007C8120E00E942F07882311F081E001C068
:1035C00080E026960FB6F894DEBF0FBECDBFDF9128
:1035D000CF910895CF93DF9300D000D000D0CDB726
:1035E000DEB79B838A836C835E834D838091BE01AB
:1035F0009091BF014D815E81BE016C5F7F4F20E0E5
:103600000E943706813011F080E00EC081EC90E01E
:10361000FC018081898389818062898381EC90E0CB
:103620002981FC01208381E026960FB6F894DEBF45
:103630000FBECDBFDF91CF910895CF93DF9300D020
:1036400000D0CDB7DEB79C838B830FB6F8940F9272
:1036500081EC90E0FC018081898389818F7D898361
:1036600081EC90E02981FC01208381EC90E0FC0159
:1036700080818A838A818F778A8381EC90E02A8196
:10368000FC0120830F900FBE00000F900F900F9051
:103690000F90DF91CF9108951F920F920FB60F9266
:1036A00011242F933F934F935F936F937F938F9347
:1036B0009F93AF93BF93EF93FF93CF93DF9300D08C
:1036C000CDB7DEB71A8286EC90E0FC018081898359
:1036D0008091BC019091BD01AE014E5F5F4F20E033
:1036E000BE016F5F7F4F0E94DA068A81882311F046
:1036F0000E94AD1800000F900F90DF91CF91FF91C5
:10370000EF91BF91AF919F918F917F916F915F9159
:103710004F913F912F910F900FBE0F901F901895D2
:103720001F920F920FB60F9211242F933F934F9336
:103730005F936F937F938F939F93AF93BF93EF9319
:10374000FF93CF93DF9300D00F92CDB7DEB7809178
:10375000BE019091BF01AE014D5F5F4F9E012E5F94
:103760003F4FB9010E941B08813031F42A8186EC59
:1037700090E0FC0120830DC081EC90E0FC01808191
:10378000898389818F7D898381EC90E02981FC0187
:10379000208300000F900F900F90DF91CF91FF9149
:1037A000EF91BF91AF919F918F917F916F915F91B9
:1037B0004F913F912F910F900FBE0F901F90189532
:1037C000CF93DF9300D000D0CDB7DEB79C838B833F
:1037D0001A8219820E94CB102091640830916508EA
:1037E0008B819C81820F931F843A964018F520911B
:1037F0006408309165088B819C81280F391F809166
:1038000064089091650882179307A0F4809164087A
:103810009091650880549E4F9A8389832091640813
:10382000309165088B819C81820F931F909365086E
:10383000809364080E94D81089819A810F900F901C
:103840000F900F90DF91CF910895CF93DF9300D029
:10385000CDB7DEB79A83898300000F900F90DF9178
:10386000CF910895CF93DF93CDB7DEB7109265085F
:10387000109264080000DF91CF910895CF93DF93F9
:10388000CDB7DEB7809164089091650824EA36E0F0
:10389000A901481B590BCA01DF91CF910895A1E2FC
:1038A0001A2EAA1BBB1BFD010DC0AA1FBB1FEE1FBA
:1038B000FF1FA217B307E407F50720F0A21BB30B05
:1038C000E40BF50B661F771F881F991F1A9469F781
:1038D00060957095809590959B01AC01BD01CF01DD
:1038E0000895FB01DC0102C001900D92415050404F
:1038F000D8F70895DC0101C06D9341505040E0F7C6
:103900000895FB01DC014150504048F001900D92B8
:103910000020C9F701C01D9241505040E0F70895C2
:04392000F894FFCF49
:10392400FFFF7461736B3031007461736B3032006C
:0639340049444C4500006F
:00000001FF
